:0A14D100EF1FAC0670011E4C600E08
:0C14DB00753E0C753FA9D53FFDD53EFACB
:0314E70080E82278
:100FEF00E4FFC2C4D2C2D2B520B3027F0420B20242
:100FFF007F0520B1027F0620B0027F07D2C4C2C294
:10100F00D2B520B3027F0820B2027F0920B1027F40
:10101F000A20B0027F0BD2C4D2C2C2B520B3027F66
:10102F000C20B2027F0D20B1027F0E20B0027F0F85
:01103F00228E
:06127F000151000152FFC5
:10110800300E0FA8077401088002C333D8FC42517F
:10111800800EA8077401088002C333D8FCF452512A
:10112800E55165526013E551F4F580E5A0541F447C
:0911380080F5A053A01F8551525F
:01114100228B
:10154100C0F9A4B0999282F88090FFBF010204080B
:0415510010204080A6
:100026007580FFE5A0541F44E0F5A053A01FEF9094
:10003600154D93F580E5A0541F44C0F5A053A01FAD
:10004600ED90154193300E06547FF5808002F580C1
:0C005600E5A0541F44E0F5A053A01F22B9
:101411007580FFE5A0541F4480F5A053A01FE4F59B
:0D14210080E5A0541F44A0F5A053A01F2299
:10150200538E7F5389F0438905E4F58AF58CC28DA9
:05151200D28CD2AF22D3
:10151700538EBF53890F758B18758DFCC28FD28E72
:05152700D2ABD2AF229F
:10158F00438E0475D72075D6D1438E1043AF04D246
:02159F00AF2279
:061285000153000154FFBB
:1013EE00EF300F0442538003F45253E553655460BB
:1013FE0011855380E5A0541F44A0F5A053A01F856E
:02140E00535435
:0114100022B9
:04148300D2A07F0A6A
:10148700000000000000000000000000000000AEA7
:06149700071FEE70EB22BE
:0F15B200D2A1121483C2A17F0A121487C2A022F1
:0C15DD00C2A1121483D2A17F0A0214875D
:0212DA00AD075E
:1012DC00E4FCC2A07F0A121487ED30E704D2A1808F
:1012EC0002C2A17F0A121487D2A0ED25E0FD7F0A6D
:0912FC001214870CBC08DBC2A02F
:0113050022C5
:10142E00E4FC121483ED25E0FD30A103430501C257
:0C143E00A07F0A1214870CBC08E8AF0560
:01144A00227F
:1013CA00AB051215B27FA01212DA1213DCAF0312A8
:0213DA0012DA25
:1013DC00121483A2A1E433FDC2A07F0A121487AFBA
:0113EC0005FB
:0113ED0022DD
:1014EA00C2A0EF24FF92A17F0A121487121483C2AA
:0814FA00A0D2A17F0A021487B1
:02133100AB0708
:10133300E4FD1215B27F901213D11215B27F9112F0
:1013430012DA1213DC12142EAD077F011214EA1203
:0413530015DDAF05F0
:011357002273
:10152C00AB071215B27F901212DA1213DC7F431242
:05153C0013D10215DDD2
:10121C008B448A4589461213CAAF481548EF601FA4
:10122C00AB440546E546AA457002054514F912057E
:10123C0065FF1212DA1213DC7FC812148780DA02EF
:02124C0015DDAE
:101085008B498A4A894B1213CA1215B27FA11212D3
:10109500DA1213DCAF4D154DEF602412142EAB4957
:1010A500054BE54BAA4A7002054A14F9EF1205AB48
:1010B500E54D6004E4FF80027F011214EA80D50249
:0210C50015DD37
:04149D007F057E0049
:1014A100EF1FAA0670011E4A600BE4FDEDC3940C08
:0514B10050EE0D80F774
:0114B6002213
:02000300A9074B
:10000500E4FBC294E913929412149DD294E9C313AC
:0C001500F90BBB08ED7F057E000214A172
:1014B700E4FBC294ECC313FCD2943094034304803E
:0914C70012149D0BBB08EBAF04ED
:0114D00022F9
:10135800C20DD2947F0C7E001214A1C2947F507EDD
:10136800001214A1D2947F0A7E001214A1A29492B2
:061378000D12149DA20DF0
:01137E00224C
:1011B4001213587FCC1200037F44120003121358F9
:1011C4007FCC1200037FBE1200031214B7A90712CA
:1011D40014B7EFAD01FCEC120211E4FBFA7980784C
:0411E4004102016F54
:10156900E4FEC297EF1392A3EFC313FFD2970EBE07
:0215790008F078
:01157B00224D
:10155500C29300C29700D29300121569AF05121508
:0415650069C29322A2
:1011E800E4FDC29300C29700D29300121569E4FF90
:1011F800C297EDC313FD30A303430580D2970FBFF9
:1012080008EEC29300C29700D29700C2A300D2A3EF
:0312180000AF051F
:01121B0022B0
:10157C00EF75F00A84C454F0FEEF75F00A84EE2582
:02158C00F0FF6E
:01158E00223A
:0E15C100EFC4540F75F00AA4FEEF540F2EFF76
:0115CF0022F9
:061306008B1D8A1E891FE9
:10130C00E4FCEC25E0FFC374859FFF1211E8121575
:10131C00C1AB1DAA1EA91F8C82758300EF1205BDDF
:04132C000CBC03DE14
:01133000229A
:061142008B3E8A3F89404C
:10114800E4FD7F8E121555E4FCAB3EAA3FA9408C06
:101158008275830012057EFF12157CAD07EC25E031
:10116800FFC374849FFF1215550CBC03DC7D807F80
:041178008E02155579
:0615F10000007F21DFFE77
:0115F70022D1
:1015A100E4FED2901215F1C2901215F10EBE08F2AE
:0115B1002217
:10117C00E4F5E9F5F9F5D91215A1D2DE3091033079
:10118C00DFFAC2DE20DF1CAFF9EFFEADE9EDFFACFC
:10119C0006E41202117B967A43798B783C12006636
:0711AC0002024AC2DF7F00CE
:0111B3002219
:10146800759850538EBF538EFE53890F758BE67552
:0B1478008DFFC2ABD28ED2ACD2AF22EF
:0815E9008F993099FDC299228F
:1013A5008B4E8A4F8950AB4EAA4FA95012056560E6
:1013B500130550E5507002054F14F9120565FF122B
:0513C50015E980E222A1
:0515F800AE070215E939
:03000000020C9F50
:0C0C9F00787FE4F6D8FD758155020CE664
:0D15D00073797374696D653A25640D0A0026
:10128B00440048000000008310173B32010B00C1E3
:0E129B0009020C0000C10AC18B010F00C10C3A
:10104000120FEF8F08E508650BFF5508F509E50855
:0D105000F45FF50A85080BE50964047027BC
:10105D00A209B39209FE7F08A20933FD7BFE7A0037
:10106D0079131207697E007F08A209E433FD7BFE28
:07107D007A007900120769F7
:011084002249
:10124E00900048E0FCA3A3E0FEA3E05407FF8F4309
:10125E0074082FF8E2FD74002FF8E224FF920E12AC
:10126E00002674132543F8E224FF920EAF430211B9
:01127E000867
:100D2B00AE0CAF0D7C277D101205DF7C007D0A1207
:100D3B0005DF7808EDF2AE0CAF0D7C037DE81205F4
:100D4B00DF7C007D0A1205DF7809EDF2AE0CAF0DEA
:100D5B007C007D641205DF7C007D0A1205DF780ABA
:100D6B00EDF2AE0CAF0D7C007D0A1205DF7C007D31
:100D7B000A1205DF780BEDF2AE0CAF0D7C007D0A8D
:100D8B001205DF780CEDF2C28CC2ABAF8CEFAD8AE3
:0E0D9B00F50CEDF50DE4F58AF58CD2ABD28C9B
:010DA9002227
:10144B00A20A920F7F401213EEA20B920F7F101283
:0C145B0013EEA20AB3920AA20BB3920B8C
:011467002262
:1010C7007BFE7A007910121306780D740BF2780AFA
:1010D700F2E4FF74102FF8E275F00A84FEEF75F062
:1010E70003A42408F8EEF274102FF8E275F00A84CE
:1010F700AEF0EF75F003A42409F8EEF20FBF03D3A7
:0111070022C5
:100EDA001211B48F1C8E1B8D1A8C1978017401F2B1
:100EEA00E4FFFE7D207C41AB1CAA1BA91AA819129B
:100EFA00006612024AEF75F0648475F00A84780875
:100F0A00E5F0F2EF75F00A8475F00A8408E5F0F26C
:100F1A00E4FFFE7D207C41AB1CAA1BA91AA819126A
:100F2A00006612024AEF75F00A84780AE5F0F222A6
:1012AD0012117C8F0EE50E75F0648475F00A84784A
:1012BD0008E5F0F2E50E75F00A8475F00A8408E58C
:0C12CD00F0F2E50E75F00A8408E5F0F27E
:0112D90022F2
:100F9600050FE50FB40427E4F50F7BE87A03F9F8AB
:100FA600900048E0FCA3E0FDA3E0FEA3E0FF1206EC
:100FB600708E258F267BFF7A1579D01207F7C3E549
:0E0FC60018942C74809481501FE513B4311AD6
:100FD400E4F510F513FE7F08A20C33FD7BFE7A00C6
:0A0FE4007913120769A20CB3920CF6
:010FEE0022E0
:100E17007F411213318F117F431213318F12AF119C
:100E270012152CE51175F0648475F00A847808E5CD
:100E3700F0F2E51175F00A8475F00A8408E5F0F21E
:100E4700E51175F00A8408E5F0F2E51275F064849F
:100E570075F00A84780DE5F0F2E51275F00A8475ED
:100E6700F00A8408E5F0F2E51275F00A8408E5F067
:020E7700F22265
:100DAA001211B48F1C8E1B8D1A8C197FEE7E0212C3
:100DBA0014D17E007F087D007BFE7A00790012073D
:100DCA00697E007F087D0A7BFE7A0079081207692E
:100DDA007E007F087D007BFE7A0079131207697B0B
:100DEA00FE7A00791012114212141112158F7BFF2C
:100DFA007A1079407D0A7C00120E797BFF7A0E798F
:0D0E0A00177DC87C00120E79120C0480FBCD
:03006300020F3A4F
:100F3A00C0E0C0F0C083C082C0D075D000C000C07D
:100F4A0001C002C003C004C005C006C00790004823
:100F5A00E0FCA3E0FDA3E0FEA3E02401FFE43EFEE3
:100F6A00E43DFDE43CFC90004812072105181212EA
:100F7A004ED007D006D005D004D003D002D001D07D
:0C0F8A0000D0D0D082D083D0F0D0E03274
:0300230002137F46
:10137F00C0E0C0D075D000C000C00730980FC29831
:10138F00751800AF10051074132FF8A699D007D059
:06139F0000D0D0D0E032C6
:0312A900015500EC
:100E79008B3E8A3F89408C418D42E555D39405507C
:100E89004F900048E0FCA3E0FDA3E0FEA3E0FFE5EE
:100E99005575F009A4241BF582E43400F583120783
:100EA90021E55575F009A4241FF582E43400F58382
:100EB900E541F0A3E542F0E55575F009A42421F5D3
:100EC90082E43400F583EBF0A3EAF0A3E9F00555D9
:010ED90022F6
:100C0400E4F53EE53EC395554003020C9EE53E7572
:100C1400F009A4241BF582E43400F583E0F8A3E092
:100C2400F9A3E0FAA3E0FB900048E0FCA3E0FDA3F5
:100C3400E0FEA3E0C39BFBEE9AFAED99F9EC98F879
:100C4400E53E75F009A4241FF582E43400F583E041
:100C5400FEA3E0FFE4FCFDC31207104038900048F7
:100C6400E0FCA3E0FDA3E0FEA3E0FFE53E75F00990
:100C7400A4241BF582E43400F583120721E53E75B4
:100C8400F009A42421F582E43400F583A3E0FAA357
:0A0C9400E0F9120763053E020C07A9
:010C9E002233
:10006600EC4D6011E8497017ED33EC3304600DE494
:10007600FCFFFEFD22E933E8330470F80202B612F3
:10008600028158046009E4CC2481500628500902F4
:1000960002C02840030202BDC0E0EB4A7044B980AA
:1000A60006D0E0FB0202ACEF4E701CBD8008EBFFF1
:1000B600EAFEE9FD80EBE98DF0A4FEE5F002014FD2
:1000C600E9CDF9EAFEEBFFEF89F0A4FCE5F0CE8975
:1000D600F0A42EFFE435F0CD89F0A42DFEE435F032
:1000E6008067EF4E7005BD80D780C3EF8BF0A4AC60
:1000F600F0EE8BF0A42CFCE435F0F8EF8AF0A42C9B
:10010600E5F038FCE433CB8DF0A42CFCE5F03BF8AD
:10011600EE8AF0A42CFCE5F038F8E433CF89F0A49D
:100126002CFCE5F038CF3400CE89F0A42FFFE5F0A3
:100136003EFEE433C98DF0A42EFEE5F039CD8AF0FB
:10014600A42FFFE5F03EFEE43DFD33D0E0FB500773
:100156000BBB000F0202C0EC2CFCEF33FFEE33FEAC
:06016600ED33FD020298DA
:10016C000202C0EC5D046005E8590470030202B69B
:10017C00120281580460F6EC4860F2EC7004FDFE4B
:10018C00FF22C860DB2481C85009C3986002500666
:10019C000202BD9850CAF582E9294B4A7005AB8220
:1001AC000202AC75F0007C1A7880C3EF9BEE9AEDDE
:1001BC0099400DC3EF9BFFEE9AFEED99FDE842F0DE
:1001CC00DC23ACF0D0E0FFD0E0FED0E0FDAB822031
:1001DC00E7101BEB60BAEC2CFCEF33FFEE33FEEDBB
:1001EC0033FD020298E803F830E705C0F075F00023
:1001FC00EF2FFFEE33FEED33FD40B830E7C280AA9F
:10020C0075F020800E75F010800575F0087D007E6D
:10021C00007F003392D530D503120702EC33401027
:10022C00EF33FFEE33FEED33FDEC33FCD5F0ED2276
:0E023C00E5F0247EA2D513CC92E7CDCEFF22B2
:10024A00EDD2E7CD33EC3392D524814006E4FFFEAC
:10025A00FDFC22FCE4CFCECDCC24E0501174FF800B
:10026A00EDC3CC13CCCD13CDCE13CECF13CF0470A8
:07027A00F030D5DE0207029F
:10079500E5392425F8E6053922782230070278253F
:1007A500E475F00112072D0205652000EB7F2ED2BE
:1007B500008018EF540F2490D43440D4FF30040B3C
:1007C500EF24BFB41A0050032461FFE53A60021517
:1007D5003A053DE53D7002053C30070D7822E4758C
:1007E500F00112072DEF0205AB0215F87403D207CD
:1007F5008003E4C207F5398B228A238924E4F53A7C
:10080500F53CF53DE53A60077F201207D080F57588
:100815003BFFC201C200C202C203C205C206C20832
:1008250012079EFF700D3007057F001207E1AF3DEF
:10083500AE3C22B4255FC2D5C20412079EFF24D068
:10084500B40A00501A75F00A783A30D50508B6FF93
:100855000106C6A426F620D5047002D20380D92449
:10086500CFB41A00EF5004C2E5D204020ACED20179
:1008750080C6D20080C0D20280BCD2D580BAD20553
:1008850080B47F201207D02002077401B53A0040DA
:10089500F1120795FF1207D0020809D208D2068087
:1008A50095120795FB120795FA120795F94A4B70B1
:1008B5000679C57A0B7BFF20022EE53A602A7E0079
:1008C5008E8275830012057E60060EEE653B70F024
:1008D500C2D5EBC0E0EAC0E0E9C0E0EE120B2ED0D5
:1008E500E0F9D0E0FAD0E0FB120565FF60AAEBC0A5
:1008F500E0EAC0E0E9C0E01207D0D0E02401F9D079
:10090500E03400FAD0E0FBE53B0460DCD53BD98060
:1009150087D20280A2120B1160F7E53B7001041229
:1009250002CBA93B600DE53B600914F53B120BB802
:10093500EF60F3EA30E702F404C3995077EAF4254F
:100945003B0430E701E404F53B800D120B1160C157
:10095500EA053B253B1202CBEA7838F630E701E49D
:10096500253B04D53B0420050114120B2EE4C0E001
:10097500120BB87838E6601320E70714F61207B8AB
:10098500802204F6D0E014C0E07F001207B8E53BF2
:1009950060071207AF153B800B3005031207AFD078
:1009A500E0020809D0E00480C5120B1160A0E53B08
:1009B500041202CB7838EAF6E53B20050260010413
:0509C5002404120B2EBA
:1009CA0074FF04C0E0120BB81207B8E53B20050219
:1009DA0060031207AFD0E0B53BE87F451207C27843
:1009EA0038E67F2B30E7047F2DF404C0E01207D0ED
:1009FA00D0E075F00A84C0F01207B9D0E01207B946
:100A0A00020809791080027908C206C2088008D251
:100A1A00D5790A8004790AC2D5E53B047002F53B10
:100A2A00E4FAFDFEFF120795FC7B0820011312076A
:100A3A0095FD7B1030000A120795FE120795FF7B81
:100A4A0020EC3382D592D55013C3E43000069FFFC1
:100A5A00E49EFEE42001039DFDE49CFCE4CBF8C285
:100A6A0001EC700CCFCECDCCE824F8F870F38017E7
:100A7A00C3EF33FFEE33FEED33FDEC33FCEB33FB18
:100A8A00994002FB0FD8E9EB300105F8D0E0C448E1
:100A9A00B201C0E00AEC4D4E4F78207B0070C2EAEA
:100AAA00B53B0040BCC0E0120B30D0F0D0E02001D2
:100ABA0004C4C0E0C4B201C0F01207B9D0F0D5F046
:100ACA00EB02080912073D08A6530A0D5808774C8D
:100ADA000873420A114F0A19440A1949088C430A31
:100AEA001F5509504609AE45091A470BE550087BC0
:100AFA002D087F2E08A22B08832308A0200BCE2ABC
:100B0A00083B480000089AE53BB4FF03753B061210
:100B1A000795FC120795FD120795FE120795FF78B7
:100B2A00310202FA790AA2D5200314300509B91054
:100B3A00020404B9080104A2D520060250010420C7
:100B4A0002689202B53A005034C0E07F203003199F
:100B5A007F30A20272067205500F120B87C202C2C0
:100B6A0006C205C2087F30800F300503E9C0E012D3
:100B7A0007D0300503D0E0F9D0E0B53ACC300517FC
:100B8A007F30B9100C1207D07F583004077F788065
:100B9A0003B908031207D03002057F2D0207D07F60
:100BAA00202008F87F2B2006F322920280CF7F00B4
:100BBA00B4070050052431F8E6FF22286E756C6CE4
:100BCA002900D2011207953001F8C201783A30D5CE
:100BDA000108F602083B2D50434958120795240391
:100BEA00B405004001E4900BE0931207C1743A1275
:0A0BFA0007C1D203753A04020A0D88
:10028100E9D2E7C933E833F892D5EDD2E7CD33ECC3
:0702910033FC5002B2D5223C
:10029800EC30E7100FBF000C0EBE00080DBD0004C7
:1002A8000BEB6014A2D5EB13FCED92E7FD2274FF73
:1002B800FCFDFEFF22E480F8A2D574FF13FC7D80CC
:0302C800E480EFE0
:1002CB00F920E72824F950037907E4F42402FB18FA
:1002DB00DBFDE624FB5014E9600DE4F618E604F6AA
:0F02EB00B40A08E4F6D9F57401F60A22C2D52246
:1002FA00ED33EC3392D5FA602AB4FF33EDC2E77BD3
:10030A00FF60067A03791FE4227A03792820D5044C
:10031A007A037923224E614E002B494E46002D491D
:10032A004E4600E47A08F608DAFC7B00740722E8F5
:10033A00C0E0ECC0E0EDC0E0EEC0E0EFC0E0EA757E
:10034A00F010A4CAABF075F04DA42BFBE435F0FC19
:10035A00EA2410FAEB34C5FBEC34D9FCEDC2E7FF12
:10036A0075F056A4F42411C5F0F434C58FF0A42A0C
:10037A00E5F03BE43CF620E714120525D0E0FFD077
:10038A00E0FED0E0FDD0E0FC12016F8014F404120C
:10039A000525D0E0FFD0E0FED0E0FDD0E0FC120061
:1003AA0066D0E0F8E6FAEDD2E7CD33EC332482FBEF
:1003BA00E4C3CF33CFCE33CECD33CD33DBF37B079C
:1003CA0075F00A846004F6081B0AE5F0F6088FF057
:1003DA00740AA4FFACF08EF0740AA42CFEACF050A0
:1003EA00010C8DF0740AA42CFDE435F0F608DBDE6E
:0303FA0074072263
:1003FD000202B6E86480F8E933E83360110460F076
:10040D00ED33EC337009E8FCE9FDEAFEEBFF220465
:10041D0060DED3EB9FEA9EE99DE8C2E78CF0C2F760
:10042D0095F0400CE8CCF8E9CDF9EACEFAEBCFFB2C
:10043D0012028185D0F05804700320D5B3E8047002
:10044D00075002B2D50202C092D5EC0460F7E4CC9D
:10045D00C0E0C398F8603B94186008400DD0E0FBF5
:10046D00020298E4FBFAC9FC8028E830E406E4C9EE
:10047D00FBE4CAFCE830E305E4C9CACBFCE8540749
:10048D006010F8C3E913F9EA13FAEB13FBEC13FC54
:10049D00D8F130F52FC3E49CFCEF9BFFEE9AFEEDF7
:1004AD0099FDD0E0FBEF4E4D4C701222DB030202A2
:1004BD00BDEC2CFCEF33FFEE33FEED33FDED30E7FD
:1004CD00EB020298EF2BFFEE3AFEED39FDD0E0FB8B
:1004DD0050130BBB00030202C0ED13FDEE13FEEF34
:0804ED0013FFEC13FC0202985E
:1004F5003F8000004120000042C80000447A00000F
:10050500461C400047C35000497424004B18968090
:100515004CBEBC205A0E1BCA6753C21C749DC5AE87
:10052500FB60065407601C2323120553EB54386007
:100535000912053F12054E120066ECF8EDF9EEFAC8
:10054500EFCB22EB12054E80F1543803241C9004A6
:10055500F5FE93FC0EEE93FD0EEE930ECE93FF2269
:100CAB00020DAAE493A3F8E493A34003F68001F2A8
:100CBB0008DFF48029E493A3F85407240CC8C3334A
:100CCB00C4540F4420C8834004F456800146F6DF19
:100CDB00E4800B010204081020408090127FE47E18
:100CEB00019360BCA3FF543F30E509541FFEE4930E
:100CFB00A360010ECF54C025E060A840B8E493A3D5
:100D0B00FAE493A3F8E493A3C8C582C8CAC583CAFF
:100D1B00F0A3C8C582C8CAC583CADFE9DEE780BEB7
:0112AC000041
:10056500BB010689828A83E0225002E722BBFE0294
:09057500E32289828A83E49322C7
:10057E00BB010CE58229F582E5833AF583E0225032
:10058E0006E92582F8E622BBFE06E92582F8E2227C
:0D059E00E58229F582E5833AF583E4932296
:1005AB00BB010689828A83F0225002F722BBFE012F
:0205BB00F32229
:1005BD00F8BB010DE58229F582E5833AF583E8F074
:1005CD00225006E92582C8F622BBFE05E92582C820
:0205DD00F22208
:1005DF00BC000BBE0029EF8DF084FFADF022E4CC00
:1005EF00F875F008EF2FFFEE33FEEC33FCEE9DECC9
:1005FF00984005FCEE9DFE0FD5F0E9E4CEFD22ED0F
:10060F00F8F5F0EE8420D21CFEADF075F008EF2F58
:10061F00FFED33FD4007985006D5F0F222C398FD49
:05062F000FD5F0EA22E6
:1006340075F008758200EF2FFFEE33FECD33CDCC7D
:1006440033CCC58233C5829BED9AEC99E582984000
:100654000CF582EE9BFEED9AFDEC99FC0FD5F0D6DD
:10066400E4CEFBE4CDFAE4CCF9A88222B800C1B907
:100674000059BA002DEC8BF084CFCECDFCE5F0CB45
:10068400F97818EF2FFFEE33FEED33FDEC33FCEB7E
:1006940033FB10D703994004EB99FB0FD8E5E4F939
:1006A400FA227818EF2FFFEE33FEED33FDEC33FC26
:1006B400C933C910D7059BE99A4007EC9BFCE99A1A
:1006C400F90FD8E0E4C9FAE4CCFB2275F010EF2F5F
:1006D400FFEE33FEED33FDCC33CCC833C810D7075F
:1006E4009BEC9AE899400AED9BFDEC9AFCE899F89A
:0E06F4000FD5F0DAE4CDFBE4CCFAE4C8F9222D
:0E070200C3E49FFFE49EFEE49DFDE49CFC2208
:10071000EB9FF5F0EA9E42F0E99D42F0E89C45F03F
:0107200022B6
:0C072100ECF0A3EDF0A3EEF0A3EFF0224B
:10072D00FAE6FB0808E6F925F0F618E6CA3AF622CD
:10073D00D083D082F8E4937012740193700DA3A34B
:10074D0093F8740193F5828883E47374029368605F
:06075D00EFA3A3A380DF5F
:060763008A838982E47321
:10076900EF4E6012EF60010EEDBB010B89828A83A7
:10077900F0A3DFFCDEFA2289F05007F709DFFCA9B4
:0C078900F022BBFEFCF309DFFCA9F0220B
:00000001FF
