:1011AE00E4FFC2C4D2C2D2B520B3027F0420B20281
:1011BE007F0520B1027F0620B0027F07D2C4C2C2D3
:1011CE00D2B520B3027F0820B2027F0920B1027F80
:1011DE000A20B0027F0BD2C4D2C2C2B520B3027FA6
:1011EE000C20B2027F0D20B1027F0E20B0027F0FC5
:0111FE0022CE
:1016D700C0F9A4B0999282F88090FFBF0102040874
:0416E700102040800F
:100026007580FFE5A0541F44E0F5A053A01FEF9094
:1000360016E393F580E5A0541F44C0F5A053A01F16
:10004600ED9016D793300E06547FF5808002F5802A
:0C005600E5A0541F44E0F5A053A01F22B9
:1016FF00538E7F5389F0438905E4F58AF58CC28DAB
:03170F00D28C2257
:10171200538EBF53890F758B18758DFCC28FD28E75
:03172200D2AB2225
:10175C00438E0475D72075D6D1438E1043AF042227
:0C137D000165000166FF0167000168FFC8
:1015EA007580FFE5A0541F4480F5A053A01FE4F5C1
:0D15FA0080E5A0541F44A0F5A053A01F22BF
:1015C700EF300F0442658003F45265E56565666098
:1015D70011856580E5A0541F44A0F5A053A01F8581
:0215E700656637
:0115E90022DF
:10130900300E0FA8077401088002C333D8FC426766
:10131900800EA8077401088002C333D8FCF4526711
:10132900E56765686013E567F4F580E5A0541F4437
:0913390080F5A053A01F85676830
:011342002288
:04165C00D2A07F0A8F
:10166000000000000000000000000000000000AECC
:06167000071FEE70EB22E3
:0F176C00D2A112165CC2A17F0A121660C2A0227F
:0C179700C2A112165CD2A17F0A021660EB
:0214B000AD0786
:1014B200E4FCC2A07F0A121660ED30E704D2A180DC
:1014C20002C2A17F0A121660D2A0ED25E0FD7F0ABA
:0914D2001216600CBC08DBC2A07C
:0114DB0022EE
:10160700E4FC12165CED25E0FD30A103430501C2A1
:0C161700A07F0A1216600CBC08E8AF05AA
:0116230022A4
:1015A300AB0512176C7FA01214B01215B5AF03125E
:0215B30014B072
:1015B50012165CA2A1E433FDC2A07F0A121660AF29
:0115C5000520
:0115C6002202
:1016AA00C2A0EF24FF92A17F0A12166012165CC232
:0816BA00A0D2A17F0A02166014
:02153000AB0707
:10153200E4FD12176C7F901215AA12176C7F91129C
:1015420014B01215B5121607AD077F011216AA12B2
:041552001797AF0533
:011556002272
:1016C200AB0712176C7F901214B01215B57F43123C
:0516D20015AA021797A4
:10141C008B5B8A5C895D1215A3AF5F155FEF601F54
:10142C00AB5B055DE55DAA5C7002055C14F9120509
:10143C00DEFF1214B01215B57FC812166080DA02E6
:02144C001797F0
:101244008B608A6189621215A312176C7FA1121434
:10125400B01215B5AF641564EF6024121607AB60C5
:101264000562E562AA617002056114F9EF120624B1
:10127400E5646004E4FF80027F011216AA80D502AF
:021284001797BA
:041676007F057E006E
:10167A00EF1FAA0670011E4A600BE4FDEDC3940C2D
:05168A0050EE0D80F799
:01168F002238
:02000300A9074B
:10000500E4FBC294E9139294121676D294E9C313D1
:0C001500F90BBB08ED7F057E0002167A97
:10169000E4FBC294ECC313FCD29430940343048063
:0916A0001216760BBB08EBAF0437
:0116A900221E
:10155700C20DD2947F0C7E0012167AC2947F507E01
:101567000012167AD2947F0A7E0012167AA29492FB
:061577000D121676A20D14
:01157D00224B
:1013B4001215577FCC1200037F44120003121557F5
:1013C4007FCC1200037FBE120003121690A90712ED
:1013D4001690EFAD01FCEC120382E4FBFA798078FD
:0413E4004102026759
:10172500E4FEC297EF1392A3EFC313FFD2970EBE49
:0217350008F0BA
:01173700228F
:1016EB00C29300C29700D29300121725AF051217B1
:0416FB0025C293224F
:1013E800E4FDC29300C29700D29300121725E4FFD0
:1013F800C297EDC313FD30A303430580D2970FBFF7
:1014080008EEC29300C29700D29700C2A300D2A3ED
:0314180000AF051D
:01141B0022AE
:10173800EF75F00A84C454F0FEEF75F00A84EE25C4
:02174800F0FFB0
:01174A00227C
:0E177B00EFC4540F75F00AA4FEEF540F2EFFBA
:01178900223D
:0614DC008B718A72897316
:1014E200E4FCEC25E0FFC374859FFF1213E812179A
:1014F2007BAB71AA72A9738C82758300EF120636D8
:041502000CBC03DE3C
:0115060022C2
:061343008B1A8A1B891CB5
:10134900E4FD7F8E1216EBE4FCAB1AAA1BA91C8CD8
:10135900827583001205F7FF121738AD07EC25E0F7
:10136900FFC374849FFF1216EB0CBC03DC7D807FE6
:041379008E0216EBDF
:0617AB0000007F21DFFEBB
:0117B1002215
:10174B00E4FED2901217ABC2901217AB0EBE08F28A
:01175B00226B
:10128600E4F5E9F5F9F5D912174BD2DE30910330C2
:10129600DFFAC2DE20DF26AFF9EFFEADE9EDFFACE7
:1012A60006E41203827B967A43798B783C12015EC0
:1012B600E4FBFA7940784012006D0203BBC2DF7F7F
:0112C6000027
:0112C7002204
:10164100759850538EBF538EFE53890F758BE67577
:0B1651008DFFC2ABD28ED2ACD2AF2214
:0817A3008F993099FDC29922D3
:10157E008B748A758976AB74AA75A9761205DE60AE
:10158E00130576E5767002057514F91205DEFF1265
:05159E0017A380E2220A
:0517B200AE070217A3C1
:03138900017700E9
:101033008B1A8A1B891C8C1D8D1EE577D394055052
:101043004E7818E2FC08E2FD08E2FE08E2FFE577CD
:1010530075F009A4241FF582E43400F58312079A7E
:10106300E57775F009A42423F582E43400F583E5DC
:101073001DF0A3E51EF0E57775F009A42425F5829C
:10108300E43400F583EBF0A3EAF0A3E9F00577225B
:100C8900E4F51AE51AC395774003020D25E51A75AF
:100C9900F009A4241FF582E43400F583E0F8A3E009
:100CA900F9A3E0FAA3E0FBC0007818E2FC08E2FD32
:100CB90008E2FE08E2D000C39BFBEE9AFAED99F92F
:100CC900EC98F8E51A75F009A42423F582E43400B8
:100CD900F583E0FEA3E0FFE4FCFDC312078940377A
:100CE9007818E2FC08E2FD08E2FE08E2FFE51A7561
:100CF900F009A4241FF582E43400F58312079AE56C
:100D09001A75F009A42425F582E43400F583A3E0DB
:0C0D1900FAA3E0F91207E8051A020C8C9E
:010D250022AB
:03000000020DC22C
:0C0DC200787FE4F6D8FD758177020E09F9
:06138C00841800000000BF
:101480007818E2FC0808E2FE08E25407FF8F1F7498
:10149000102FF8E2FD74002FF8E224FF920E1200E4
:1014A000267408251FF8E224FF920EAF1F021309CD
:1010F3001215EA1213B4E4FBFA79A078421203043E
:1011030040F17E007F087D007BFE7A0079001207A4
:10111300EE7E007F087D0A7BFE7A0079101207EECF
:101123007E007F087D007BFE7A0079081207EE7B44
:10113300FE7A00791C12134312175CD2AF7BFF7A3D
:0F1143001179FF7D0A7C00121033120C8980FB9A
:03006300021093F5
:10109300C0E0C0F0C083C082C0D075D000C000C023
:1010A30001C002C003C004C005C006C0077818E22F
:1010B300FC08E2FD08E2FE08E22401FFE43EFEE450
:1010C3003DFDE43CFC78181207A6053EE53E7002A0
:1010D300053D121480D007D006D005D004D003D02C
:1010E30002D001D000D0D0D082D083D0F0D0E03273
:03002300021507BC
:10150700C0E0C0D075D000C000C007309812C298A4
:10151700753D00753E00AF31053174382FF8A69937
:09152700D007D000D0D0D0E03292
:0D178A0073797374696D653A25640D0A006A
:10139200831C173B320222000004240000000001DB
:1013A2002B00C109022C0000C10AC18B013000C10F
:0113B2000C2E
:0E0ECD007E007519CD7518CC75174C75163E44
:040EDB008E148F15CD
:100EDF00E52345227006851422851523AB19AA1820
:100EEF00A917A816E4FFFE7D807C3F120069C0049D
:100EFF00C005C006C007AC14AD15E4120382D003C1
:100F0F00D002D001D00012015EC004C005C006C0DF
:100F1F0007AC22AD23E4120382AB19AA18A917A8B4
:100F2F001612015ED003D002D001D00012006D1254
:060F3F0003BB8E228F238C
:010F45002289
:080FBD008F0B8E0A8D098C08D0
:100FC500AF27AE26AD25AC24EC4D4E4F700C850BEE
:100FD50027850A26850925850824AB0FAA0EA90DA4
:100FE500A80CE4FFFE7D807C3F120069AB0BAA0ACA
:100FF500A909A80812015EC004C005C006C007AF54
:101005000FAE0EAD0DAC0CAB27AA26A925A8241250
:10101500015ED003D002D001D00012006D8F138E77
:0D102500128D118C108F278E268D258C24A6
:01103200229B
:1011FF001211AE8F28E528652BFF5528F529E52814
:0D120F00F45FF52A85282BE529640470277B
:10121C00A209B39209FE7F08A20933FD7BFE7A0076
:10122C0079081207EE7E007F08A209E433FD7BFEED
:07123C007A0079001207EEB1
:011243002288
:100E4E00AE2CAF2D7C277D101206587C007D0A1229
:100E5E0006587810EDF2AE2CAF2D7C037DE812060D
:100E6E00587C007D0A1206587811EDF2AE2CAF2D8B
:100E7E007C007D641206587C007D0A12065878129A
:100E8E00EDF2AE2CAF2D7C007D0A1206587C007D53
:100E9E000A1206587813EDF2AE2CAF2D7C007D0AA7
:100EAE001206587814EDF2C28CC2ABAF8CEFAD8A3D
:0E0EBE00F52CEDF52DE4F58AF58CD2ABD28C37
:010ECC002203
:10162400A20A920F7F401215C7A20B920F7F1012CD
:0C16340015C7A20AB3920AA20BB3920BD6
:011640002287
:1012C8007BFE7A00791C1214DC7815740BF2781204
:1012D800F2E4FF741C2FF8E275F00A84FEEF75F053
:1012E80003A42410F8EEF2741C2FF8E275F00A84B7
:1012F800AEF0EF75F003A42411F8EEF20FBF03D39C
:0113080022C2
:100F46001213B48F378E368D358C34750F9A750E15
:100F560099750D99750C3E120FBD8F6C8E6B8D6A4F
:100F66008C6978017401F2E4FFFE7D207C41AB6C54
:100F7600AA6BA96AA86912015E1203BBEF75F06439
:100F86008475F00A847810E5F0F2EF75F00A84753E
:100F9600F00A8408E5F0F2E4FFFE7D207C41AB6CAC
:100FA600AA6BA96AA86912015E1203BBEF75F00A63
:060FB600847812E5F0F260
:010FBC002212
:10144E001212868F2E120ECD8F2FE52F75F064841B
:10145E0075F00A847810E5F0F2E52F75F00A8475C0
:10146E00F00A8408E5F0F2E52F75F00A8408E5F03D
:01147E00F27B
:01147F00224A
:101152000530E530B4042AE4F5307BE87A03F9F887
:10116200C0007818E2FC08E2FD08E2FE08E2FFD0C7
:10117200001206E98E428F437BFF7A17798A1208A2
:101182007CD3E53E942CE53D9401401FE538B43113
:011192001A42
:10119300E4F531F538FE7F08A20C33FD7BFE7A00BF
:0A11A30079081207EEA20CB3920CBB
:0111AD00221F
:100D26007F411215308F327F431215308F33AF3229
:100D3600120ECD8E6D8F6EAF33120ECD8E6F8F70FD
:100D4600AF321216C2AE6DAF6E7C007D64120658CD
:100D56007C007D0A1206587810EDF2AE6DAF6E7CFF
:100D6600007D0A1206587C007D0A1206587811ED9D
:100D7600F2AE6DAF6E7C007D0A1206587812EDF267
:100D8600AE6FAF707C007D641206587C007D0A123F
:100D960006587815EDF2AE6FAF707C007D0A12062C
:100DA600587C007D0A1206587816EDF2AE6FAF70C9
:0B0DB6007C007D0A1206587817EDF251
:010DC100220F
:10006600020427E86480F8E933E83360110460F09D
:10007600ED33EC337009E8FCE9FDEAFEEBFF220400
:1000860060DED3EB9FEA9EE99DE8C2E78CF0C2F7FB
:1000960095F0400CE8CCF8E9CDF9EACEFAEBCFFBC7
:1000A6001203F285D0F05804700320D5B3E804702B
:1000B600075002B2D502043192D5EC0460F7E4CCC5
:1000C600C0E0C398F8603B94186008400DD0E0FB90
:1000D600020409E4FBFAC9FC8028E830E406E4C916
:1000E600FBE4CAFCE830E305E4C9CACBFCE85407E4
:1000F6006010F8C3E913F9EA13FAEB13FBEC13FCEF
:10010600D8F130F52FC3E49CFCEF9BFFEE9AFEED91
:1001160099FDD0E0FBEF4E4D4C701222DB0302043A
:100126002EEC2CFCEF33FFEE33FEED33FDED30E726
:10013600EB020409EF2BFFEE3AFEED39FDD0E0FBB2
:1001460050130BBB0003020431ED13FDEE13FEEF5B
:0801560013FFEC13FC02040985
:10015E00EC4D6011E8497017ED33EC3304600DE49B
:10016E00FCFFFEFD22E933E8330470F80204271287
:10017E0003F258046009E4CC248150062850090289
:10018E00043128400302042EC0E0EB4A7044B980CB
:10019E0006D0E0FB02041DEF4E701CBD8008EBFF85
:1001AE00EAFEE9FD80EBE98DF0A4FEE5F0020247E0
:1001BE00E9CDF9EAFEEBFFEF89F0A4FCE5F0CE897C
:1001CE00F0A42EFFE435F0CD89F0A42DFEE435F039
:1001DE008067EF4E7005BD80D780C3EF8BF0A4AC67
:1001EE00F0EE8BF0A42CFCE435F0F8EF8AF0A42CA2
:1001FE00E5F038FCE433CB8DF0A42CFCE5F03BF8B5
:10020E00EE8AF0A42CFCE5F038F8E433CF89F0A4A4
:10021E002CFCE5F038CF3400CE89F0A42FFFE5F0AA
:10022E003EFEE433C98DF0A42EFEE5F039CD8AF002
:10023E00A42FFFE5F03EFEE43DFD33D0E0FB50077A
:10024E000BBB000F020431EC2CFCEF33FFEE33FE40
:06025E00ED33FD0204096E
:10026400020431EC5D046005E859047003020427BC
:100274001203F2580460F6EC4860F2EC7004FDFEE0
:10028400FF22C860DB2481C85009C398600250066D
:1002940002042E9850CAF582E9294B4A7005AB82B4
:1002A40002041D75F0007C1A7880C3EF9BEE9AED72
:1002B40099400DC3EF9BFFEE9AFEED99FDE842F0E5
:1002C400DC23ACF0D0E0FFD0E0FED0E0FDAB822038
:1002D400E7101BEB60BAEC2CFCEF33FFEE33FEEDC2
:1002E40033FD020409E803F830E705C0F075F000B7
:1002F400EF2FFFEE33FEED33FD40B830E7C280AAA6
:1003040074F8CC6480CCC86480C8F58204604FC3A0
:10031400EB9FF5F0EA9E42F0E99D42F0E89C45F03F
:10032400603C501DE5825FFFE582D313CB5BCBF4C9
:100334002B5582FB50280ABA002409B900200880F2
:100344001DE5825BFBE582D313CF5FCFF4C3132F8C
:100354005582FF50090EBE00050DBD00010CC3EB14
:100364009FF5F0EA9E42F0E99D42F0E89C45F0607A
:0903740007CC4820E701B3EC229C
:10037D0075F020800E75F010800575F0087D007EFB
:10038D00007F003392D530D50312077BEC3340103C
:10039D00EF33FFEE33FEED33FDEC33FCD5F0ED2204
:0E03AD00E5F0247EA2D513CC92E7CDCEFF2240
:1003BB00EDD2E7CD33EC3392D524814006E4FFFE3A
:1003CB00FDFC22FCE4CFCECDCC24E0501174FF8099
:1003DB00EDC3CC13CCCD13CDCE13CECF13CF047036
:0703EB00F030D5DE02077BB4
:10081A00E5562442F8E6055622783F300702784228
:10082A00E475F0011207B20205DE2000EB7F2ED23A
:10083A00008018EF540F2490D43440D4FF30040BB6
:10084A00EF24BFB41A0050032461FFE55760021574
:10085A0057055AE55A7002055930070D783FE47575
:10086A00F0011207B2EF0206240217B27403D2078C
:10087A008003E4C207F5568B3F8A408941E4F55765
:10088A00F559F55AE55760077F2012085580F57526
:10089A0058FFC201C200C202C203C205C206C20890
:1008AA00120823FF700D3007057F00120866AF5A41
:1008BA00AE5922B4255FC2D5C204120823FF24D040
:1008CA00B40A00501A75F00A785730D50508B6FFF1
:1008DA000106C6A426F620D5047002D20380D924C4
:1008EA00CFB41A00EF5004C2E5D204020B53D2016E
:1008FA0080C6D20080C0D20280BCD2D580BAD205CE
:10090A0080B47F201208552002077401B5570040B1
:10091A00F112081AFF12085502088ED208D2068070
:10092A009512081AFB12081AFA12081AF94A4B7099
:10093A0006794A7A0C7BFF20022EE557602A7E0050
:10094A008E827583001205F760060EEE655870F008
:10095A00C2D5EBC0E0EAC0E0E9C0E0EE120BB3D0CA
:10096A00E0F9D0E0FAD0E0FB1205DEFF60AAEBC0A6
:10097A00E0EAC0E0E9C0E0120855D0E02401F9D06D
:10098A00E03400FAD0E0FBE5580460DCD558D980A1
:10099A0087D20280A2120B9660F7E5587001041202
:1009AA00043CA958600DE558600914F558120C3D2D
:1009BA00EF60F3EA30E702F404C3995077EAF425CA
:1009CA00580430E701E404F558800D120B9660C113
:1009DA00EA0558255812043CEA7855F630E701E44E
:1009EA00255804D5580420050114120BB3E4C0E0BD
:1009FA00120C3D7855E6601320E70714F612083DFD
:100A0A00802204F6D0E014C0E07F0012083DE558C9
:100A1A0060071208341558800B300503120834D0C9
:100A2A00E002088ED0E00480C5120B9660A0E5585B
:100A3A000412043C7855EAF6E558200502600104E0
:050A4A002404120BB3AF
:100A4F0074FF04C0E0120C3D12083DE5582005026A
:100A5F006003120834D0E0B558E87F451208477894
:100A6F0055E67F2B30E7047F2DF404C0E0120855C4
:100A7F00D0E075F00A84C0F012083ED0E012083EB4
:100A8F0002088E791080027908C206C2088008D247
:100A9F00D5790A8004790AC2D5E558047002F55851
:100AAF00E4FAFDFEFF12081AFC7B0820011312085E
:100ABF001AFD7B1030000A12081AFE12081AFF7B6B
:100ACF0020EC3382D592D55013C3E43000069FFF3C
:100ADF00E49EFEE42001039DFDE49CFCE4CBF8C200
:100AEF0001EC700CCFCECDCCE824F8F870F3801762
:100AFF00C3EF33FFEE33FEED33FDEC33FCEB33FB93
:100B0F00994002FB0FD8E9EB300105F8D0E0C4485B
:100B1F00B201C0E00AEC4D4E4F78207B0070C2EA64
:100B2F00B5580040BCC0E0120BB5D0F0D0E02001AA
:100B3F0004C4C0E0C4B201C0F012083ED0F0D5F03A
:100B4F00EB02088E1207C2092B530A925808FC4C6D
:100B5F0008F8420A964F0A9E440A9E490911430A11
:100B6F00A45509D5460A3345099F470C6A50090019
:100B7F002D09042E09272B0908230925200C532A98
:100B8F0008C0480000091FE558B4FF037558061246
:100B9F00081AFC12081AFD12081AFE12081AFF781A
:100BAF004E02046B790AA2D5200314300509B9103F
:100BBF00020404B9080104A2D52006025001042042
:100BCF0002689202B557005034C0E07F20300319FD
:100BDF007F30A20272067205500F120C0CC202C2B5
:100BEF0006C205C2087F30800F300503E9C0E0124E
:100BFF000855300503D0E0F9D0E0B557CC300517D4
:100C0F007F30B9100C1208557F583004077F788059
:100C1F0003B908031208553002057F2D0208557FCE
:100C2F00202008F87F2B2006F322920280CF7F002E
:100C3F00B407005005244EF8E6FF22286E756C6C41
:100C4F002900D20112081A3001F8C201785730D5A5
:100C5F000108F60208C02D5043495812081A240300
:100C6F00B405004001E4900C6593120846743A12E3
:0A0C7F000846D203755704020A92DA
:1003F200E9D2E7C933E833F892D5EDD2E7CD33EC51
:0704020033FC5002B2D522C9
:10040900EC30E7100FBF000C0EBE00080DBD000454
:100419000BEB6014A2D5EB13FCED92E7FD2274FF00
:10042900FCFDFEFF22E480F8A2D574FF13FC7D8059
:03043900E480EF6D
:10043C00F920E72824F950037907E4F42402FB1887
:10044C00DBFDE624FB5014E9600DE4F618E604F637
:0F045C00B40A08E4F6D9F57401F60A22C2D522D3
:10046B00ED33EC3392D5FA602AB4FF33EDC2E77B60
:10047B00FF60067A047990E4227A04799920D504F6
:10048B007A047994224E614E002B494E46002D4939
:10049B004E4600E47A08F608DAFC7B00740722E883
:1004AB00C0E0ECC0E0EDC0E0EEC0E0EFC0E0EA750C
:1004BB00F010A4CAABF075F04DA42BFBE435F0FCA7
:1004CB00EA2410FAEB34C5FBEC34D9FCEDC2E7FFA0
:1004DB0075F056A4F42411C5F0F434C58FF0A42A9A
:1004EB00E5F03BE43CF620E71412059ED0E0FFD08C
:1004FB00E0FED0E0FDD0E0FC1202678014F40412A1
:10050B00059ED0E0FFD0E0FED0E0FDD0E0FC120174
:10051B005ED0E0F8E6FAEDD2E7CD33EC332482FB84
:10052B00E4C3CF33CFCE33CECD33CD33DBF37B0729
:10053B0075F00A846004F6081B0AE5F0F6088FF0E4
:10054B00740AA4FFACF08EF0740AA42CFEACF0502D
:10055B00010C8DF0740AA42CFDE435F0F608DBDEFB
:03056B00740722F0
:10056E003F8000004120000042C80000447A000095
:10057E00461C400047C35000497424004B18968017
:10058E004CBEBC205A0E1BCA6753C21C749DC5AE0E
:10059E00FB60065407601C23231205CCEB54386015
:1005AE00091205B81205C712015EECF8EDF9EEFA64
:1005BE00EFCB22EB1205C780F1543803241C9005B3
:1005CE006EFE93FC0EEE93FD0EEE930ECE93FF2277
:100DCE000210F3E493A3F8E493A34003F68001F238
:100DDE0008DFF48029E493A3F85407240CC8C33326
:100DEE00C4540F4420C8834004F456800146F6DFF5
:100DFE00E4800B010204081020408090137DE47EF5
:100E0E00019360BCA3FF543F30E509541FFEE493E9
:100E1E00A360010ECF54C025E060A840B8E493A3B0
:100E2E00FAE493A3F8E493A3C8C582C8CAC583CADB
:100E3E00F0A3C8C582C8CAC583CADFE9DEE780BE93
:0113B3000039
:1005DE00BB010689828A83E0225002E722BBFE021B
:0905EE00E32289828A83E493224E
:1005F700BB010CE58229F582E5833AF583E02250B9
:1006070006E92582F8E622BBFE06E92582F8E22202
:0D061700E58229F582E5833AF583E493221C
:10062400BB010689828A83F0225002F722BBFE01B5
:02063400F322AF
:10063600F8BB010DE58229F582E5833AF583E8F0FA
:10064600225006E92582C8F622BBFE05E92582C8A6
:02065600F2228E
:10065800BC000BBE0029EF8DF084FFADF022E4CC86
:10066800F875F008EF2FFFEE33FEEC33FCEE9DEC4F
:10067800984005FCEE9DFE0FD5F0E9E4CEFD22ED95
:10068800F8F5F0EE8420D21CFEADF075F008EF2FDF
:10069800FFED33FD4007985006D5F0F222C398FDD0
:0506A8000FD5F0EA226D
:1006AD0075F008758200EF2FFFEE33FECD33CDCC04
:1006BD0033CCC58233C5829BED9AEC99E582984087
:1006CD000CF582EE9BFEED9AFDEC99FC0FD5F0D664
:1006DD00E4CEFBE4CDFAE4CCF9A88222B800C1B98E
:1006ED000059BA002DEC8BF084CFCECDFCE5F0CBCC
:1006FD00F97818EF2FFFEE33FEED33FDEC33FCEB05
:10070D0033FB10D703994004EB99FB0FD8E5E4F9BF
:10071D00FA227818EF2FFFEE33FEED33FDEC33FCAC
:10072D00C933C910D7059BE99A4007EC9BFCE99AA0
:10073D00F90FD8E0E4C9FAE4CCFB2275F010EF2FE5
:10074D00FFEE33FEED33FDCC33CCC833C810D707E5
:10075D009BEC9AE899400AED9BFDEC9AFCE899F820
:0E076D000FD5F0DAE4CDFBE4CCFAE4C8F922B3
:0E077B00C3E49FFFE49EFEE49DFDE49CFC228F
:10078900EB9FF5F0EA9E42F0E99D42F0E89C45F0C6
:01079900223D
:0C079A00ECF0A3EDF0A3EEF0A3EFF022D2
:0C07A600ECF208EDF208EEF208EFF2228F
:1007B200FAE6FB0808E6F925F0F618E6CA3AF62248
:1007C200D083D082F8E4937012740193700DA3A3C6
:1007D20093F8740193F5828883E4737402936860DA
:0607E200EFA3A3A380DFDA
:0607E8008A838982E4739C
:1007EE00EF4E6012EF60010EEDBB010B89828A8322
:1007FE00F0A3DFFCDEFA2289F05007F709DFFCA92F
:0C080E00F022BBFEFCF309DFFCA9F02285
:00000001FF
