:0A153800EF1FAC0670011E4C600EA0
:0C154200753E0C753FA9D53FFDD53EFA63
:03154E0080E82210
:10105600E4FFC2C4D2C2D2B520B3027F0420B202DA
:101066007F0520B1027F0620B0027F07D2C4C2C22C
:10107600D2B520B3027F0820B2027F0920B1027FD9
:101086000A20B0027F0BD2C4D2C2C2B520B3027FFF
:101096000C20B2027F0D20B1027F0E20B0027F0F1E
:0110A6002227
:0612E6000154000155FF58
:10116F00300E0FA8077401088002C333D8FC425415
:10117F00800EA8077401088002C333D8FCF45254C0
:10118F00E55465556013E554F4F580E5A0541F440C
:09119F0080F5A053A01F855455F2
:0111A8002224
:1015A800C0F9A4B0999282F88090FFBF01020408A4
:0415B800102040803F
:100026007580FFE5A0541F44E0F5A053A01FEF9094
:1000360015B493F580E5A0541F44C0F5A053A01F46
:10004600ED9015A893300E06547FF5808002F5805A
:0C005600E5A0541F44E0F5A053A01F22B9
:101478007580FFE5A0541F4480F5A053A01FE4F534
:0D14880080E5A0541F44A0F5A053A01F2232
:10156900538E7F5389F0438905E4F58AF58CC28D42
:05157900D28CD2AF226C
:10157E00538EBF53890F758B18758DFCC28FD28E0B
:05158E00D2ABD2AF2238
:1015F600438E0475D72075D6D1438E1043AF04D2DF
:02160600AF2211
:0612EC000156000157FF4E
:10145500EF300F0442568003F45256E55665576047
:1014650011855680E5A0541F44A0F5A053A01F8503
:021475005657C8
:011477002252
:0414EA00D2A07F0A03
:1014EE00000000000000000000000000000000AE40
:0614FE00071FEE70EB2257
:0F161900D2A11214EAC2A17F0A1214EEC2A022BB
:0C164400C2A11214EAD2A17F0A0214EE27
:02134100AD07F6
:10134300E4FCC2A07F0A1214EEED30E704D2A180C0
:1013530002C2A17F0A1214EED2A0ED25E0FD7F0A9E
:091363001214EE0CBC08DBC2A060
:01136C00225E
:10149500E4FC1214EAED25E0FD30A103430501C289
:0C14A500A07F0A1214EE0CBC08E8AF0592
:0114B1002218
:10143100AB051216197FA0121341121443AF031208
:02144100134155
:101443001214EAA2A1E433FDC2A07F0A1214EEAF84
:011453000593
:011454002275
:10155100C2A0EF24FF92A17F0A1214EE1214EAC274
:08156100A0D2A17F0A0214EEE2
:02139800AB07A1
:10139A00E4FD1216197F901214381216197F911251
:1013AA001341121443121495AD077F0112155112FD
:0413BA001644AF0521
:0113BE00220C
:10159300AB071216197F901213411214437F4312A3
:0515A30014380216449B
:101283008B478A488949121431AF4B154BEF601FC6
:10129300AB470549E549AA487002054814F9120508
:1012A30065FF1213411214437FC81214EE80DA0251
:0212B3001644DF
:1010EC008B4C8A4D894E1214311216197FA1121392
:1010FC0041121443AF501550EF6024121495AB4CB1
:10110C00054EE54EAA4D7002054D14F9EF1205ABD4
:10111C00E5506004E4FF80027F0112155180D50276
:02112C00164467
:041504007F057E00E1
:10150800EF1FAA0670011E4A600BE4FDEDC3940CA0
:0515180050EE0D80F70C
:01151D0022AB
:02000300A9074B
:10000500E4FBC294E9139294121504D294E9C31344
:0C001500F90BBB08ED7F057E000215080A
:10151E00E4FBC294ECC313FCD294309403430480D6
:09152E001215040BBB08EBAF041D
:011537002291
:1013BF00C20DD2947F0C7E00121508C2947F507E0E
:1013CF0000121508D2947F0A7E00121508A294927B
:0613DF000D121504A20D21
:0113E50022E5
:10121B001213BF7FCC1200037F441200031213BFC3
:10122B007FCC1200037FBE12000312151EA90712FA
:10123B00151EEFAD01FCEC120211E4FBFA7980787C
:04124B004102016FEC
:1015D000E4FEC297EF1392A3EFC313FFD2970EBEA0
:0215E00008F011
:0115E20022E6
:1015BC00C29300C29700D293001215D0AF0512153A
:0415CC00D0C29322D4
:10124F00E4FDC29300C29700D293001215D0E4FFC1
:10125F00C297EDC313FD30A303430580D2970FBF91
:10126F0008EEC29300C29700D29700C2A300D2A388
:03127F0000AF05B8
:011282002249
:1015E300EF75F00A84C454F0FEEF75F00A84EE251B
:0215F300F0FF07
:0115F50022D3
:0E162800EFC4540F75F00AA4FEEF540F2EFF0E
:011636002291
:06136D008B1D8A1E891F82
:10137300E4FCEC25E0FFC374859FFF12124F1216A5
:1013830028AB1DAA1EA91F8C82758300EF1205BD11
:041393000CBC03DEAD
:011397002233
:0611A9008B3E8A3F8940E5
:1011AF00E4FD7F8E1215BCE4FCAB3EAA3FA9408C38
:1011BF008275830012057EFF1215E3AD07EC25E063
:1011CF00FFC374849FFF1215BC0CBC03DC7D807FB2
:0411DF008E0215BCAB
:0616580000007F21DFFE0F
:01165E002269
:10160800E4FED290121658C2901216580EBE08F276
:0116180022AF
:1011E300E4F5E9F5F9F5D9121608D2DE30910330AA
:1011F300DFFAC2DE20DF1CAFF9EFFEADE9EDFFAC95
:1012030006E41202117B967A43798B783C120066CE
:0712130002024AC2DF7F0066
:01121A0022B1
:1014CF00759850538EBF538EFE53890F758BE675EB
:0B14DF008DFFC2ABD28ED2ACD2AF2288
:081650008F993099FDC2992227
:10140C008B518A528953AB51AA52A953120565606C
:10141C00130553E5537002055214F9120565FF12BA
:05142C00165080E222D1
:05165F00AE0702165069
:03000000020D6C82
:0C0D6C00787FE4F6D8FD758158020DB3C5
:0D16370073797374696D653A25640D0A00BE
:1012F200440048000000008310173B32010B00C17C
:0E13020009020C0000C10AC18B010F00C10CD2
:1010A7001210568F08E508650BFF5508F509E50886
:0D10B700F45FF50A85080BE5096404702755
:1010C400A209B39209FE7F08A20933FD7BFE7A00D0
:1010D40079131207697E007F08A209E433FD7BFEC1
:0710E4007A00790012076990
:0110EB0022E2
:1012B500900048E0FCA3A3E0FEA3E05407FF8F469F
:1012C50074082FF8E2FD74002FF8E224FF920E1245
:1012D500002674132546F8E224FF920EAF4602114C
:0112E5006F99
:100DF800AE0CAF0D7C277D101205DF7C007D0A123A
:100E080005DF7808EDF2AE0CAF0D7C037DE8120526
:100E1800DF7C007D0A1205DF7809EDF2AE0CAF0D1C
:100E28007C007D641205DF7C007D0A1205DF780AEC
:100E3800EDF2AE0CAF0D7C007D0A1205DF7C007D63
:100E48000A1205DF780BEDF2AE0CAF0D7C007D0ABF
:100E58001205DF780CEDF2C28CC2ABAF8CEFAD8A15
:0E0E6800F50CEDF50DE4F58AF58CD2ABD28CCD
:010E76002259
:1014B200A20A920F7F40121455A20B920F7F1012B4
:0C14C2001455A20AB3920AA20BB3920BBD
:0114CE0022FB
:10112E007BFE7A00791012136D780D740BF2780A2B
:10113E00F2E4FF74102FF8E275F00A84FEEF75F0FA
:10114E0003A42408F8EEF274102FF8E275F00A8466
:10115E00AEF0EF75F003A42409F8EEF20FBF03D33F
:01116E00225E
:100F450012121B8F1C8E1B8D1A8C1978017401F2DD
:100F5500E4FFFE7D207C41AB1CAA1BA91AA819122F
:100F6500006612024AEF75F0648475F00A84780809
:100F7500E5F0F2EF75F00A8475F00A8408E5F0F201
:100F8500E4FFFE7D207C41AB1CAA1BA91AA81912FF
:100F9500006612024AEF75F00A84780AE5F0F2223B
:101314001211E38F0EE50E75F0648475F00A84787B
:1013240008E5F0F2E50E75F00A8475F00A8408E524
:0C133400F0F2E50E75F00A8408E5F0F216
:01134000228A
:10100100050FE50FB40427E4F50F7BE87A03F9F83F
:10101100900048E0FCA3E0FDA3E0FEA3E0FF120680
:10102100708E258F267BFF7A1679371207F7E51820
:0A103100D3941E401FE513B4311ADA
:10103B00E4F510F513FE7F08A20C33FD7BFE7A005E
:0A104B007913120769A20CB3920C8E
:011055002278
:100C04007F411213988F117F431213988F12AF11E3
:100C1400121593AC11E4120216E4FBFA797F7843BF
:100C240012016FE4FBFA79A078401200668F418EBE
:100C3400408D3F8C3EAC12E4120216E4FBFA797F3D
:100C4400784312016F7B337A33795378401200660C
:100C54008F458E448D438C42E4FFFE7D207C41AB66
:100C640041AA40A93FA83E12006612024AAB07AA55
:100C7400067C007D0A1205DF7C007D0A1205DF7800
:100C840009EDF27C007D0AAF03AE021205DF780A9B
:100C9400EDF2E4FFFE7D207C41AB45AA44A943A8C4
:100CA4004212006612024AAB07AA067C007D0A12B1
:100CB40005DF7C007D0A1205DF780EEDF27C007DF5
:0C0CC4000AAF03AE021205DF780FEDF25C
:010CD0002201
:100E770012121B8F1C8E1B8D1A8C197FEE7E02128D
:100E870015387E007F087D007BFE7A007900120707
:100E9700697E007F087D0A7BFE7A00790812076960
:100EA7007E007F087D007BFE7A0079131207697B3D
:100EB700FE7A0079101211A91214781215F67BFF29
:100EC7007A1079A77D0A7C00120EE47BFF7A0C79F1
:0D0ED700047DC87C00120EE4120CD180FBDB
:03006300020FA5E4
:100FA500C0E0C0F0C083C082C0D075D000C000C012
:100FB50001C002C003C004C005C006C007900048B8
:100FC500E0FCA3E0FDA3E0FEA3E02401FFE43EFE78
:100FD500E43DFDE43CFC900048120721051812127F
:100FE500B5D007D006D005D004D003D002D001D0AB
:0C0FF50000D0D0D082D083D0F0D0E03209
:030023000213E6DF
:1013E600C0E0C0D075D000C000C00730980FC298CA
:1013F600751800AF10051074132FF8A699D007D0F2
:0614060000D0D0D0E0325E
:0313100001580081
:100EE4008B3E8A3F89408C418D42E558D39405500E
:100EF4004F900048E0FCA3E0FDA3E0FEA3E0FFE583
:100F04005875F009A4241BF582E43400F583120714
:100F140021E55875F009A4241FF582E43400F58313
:100F2400E541F0A3E542F0E55875F009A42421F564
:100F340082E43400F583EBF0A3EAF0A3E9F005586A
:010F4400228A
:100CD100E4F53EE53EC395584003020D6BE53E75D4
:100CE100F009A4241BF582E43400F583E0F8A3E0C5
:100CF100F9A3E0FAA3E0FB900048E0FCA3E0FDA328
:100D0100E0FEA3E0C39BFBEE9AFAED99F9EC98F8AB
:100D1100E53E75F009A4241FF582E43400F583E073
:100D2100FEA3E0FFE4FCFDC3120710403890004829
:100D3100E0FCA3E0FDA3E0FEA3E0FFE53E75F009C2
:100D4100A4241BF582E43400F583120721E53E75E6
:100D5100F009A42421F582E43400F583A3E0FAA389
:0A0D6100E0F9120763053E020CD40E
:010D6B002265
:10006600EC4D6011E8497017ED33EC3304600DE494
:10007600FCFFFEFD22E933E8330470F80202B612F3
:10008600028158046009E4CC2481500628500902F4
:1000960002C02840030202BDC0E0EB4A7044B980AA
:1000A60006D0E0FB0202ACEF4E701CBD8008EBFFF1
:1000B600EAFEE9FD80EBE98DF0A4FEE5F002014FD2
:1000C600E9CDF9EAFEEBFFEF89F0A4FCE5F0CE8975
:1000D600F0A42EFFE435F0CD89F0A42DFEE435F032
:1000E6008067EF4E7005BD80D780C3EF8BF0A4AC60
:1000F600F0EE8BF0A42CFCE435F0F8EF8AF0A42C9B
:10010600E5F038FCE433CB8DF0A42CFCE5F03BF8AD
:10011600EE8AF0A42CFCE5F038F8E433CF89F0A49D
:100126002CFCE5F038CF3400CE89F0A42FFFE5F0A3
:100136003EFEE433C98DF0A42EFEE5F039CD8AF0FB
:10014600A42FFFE5F03EFEE43DFD33D0E0FB500773
:100156000BBB000F0202C0EC2CFCEF33FFEE33FEAC
:06016600ED33FD020298DA
:10016C000202C0EC5D046005E8590470030202B69B
:10017C00120281580460F6EC4860F2EC7004FDFE4B
:10018C00FF22C860DB2481C85009C3986002500666
:10019C000202BD9850CAF582E9294B4A7005AB8220
:1001AC000202AC75F0007C1A7880C3EF9BEE9AEDDE
:1001BC0099400DC3EF9BFFEE9AFEED99FDE842F0DE
:1001CC00DC23ACF0D0E0FFD0E0FED0E0FDAB822031
:1001DC00E7101BEB60BAEC2CFCEF33FFEE33FEEDBB
:1001EC0033FD020298E803F830E705C0F075F00023
:1001FC00EF2FFFEE33FEED33FD40B830E7C280AA9F
:10020C0075F020800E75F010800575F0087D007E6D
:10021C00007F003392D530D503120702EC33401027
:10022C00EF33FFEE33FEED33FDEC33FCD5F0ED2276
:0E023C00E5F0247EA2D513CC92E7CDCEFF22B2
:10024A00EDD2E7CD33EC3392D524814006E4FFFEAC
:10025A00FDFC22FCE4CFCECDCC24E0501174FF800B
:10026A00EDC3CC13CCCD13CDCE13CECF13CF0470A8
:07027A00F030D5DE0207029F
:10079500E5392425F8E6053922782230070278253F
:1007A500E475F00112072D0205652000EB7F2ED2BE
:1007B500008018EF540F2490D43440D4FF30040B3C
:1007C500EF24BFB41A0050032461FFE53A60021517
:1007D5003A053DE53D7002053C30070D7822E4758C
:1007E500F00112072DEF0205AB02165F7403D20765
:1007F5008003E4C207F5398B228A238924E4F53A7C
:10080500F53CF53DE53A60077F201207D080F57588
:100815003BFFC201C200C202C203C205C206C20832
:1008250012079EFF700D3007057F001207E1AF3DEF
:10083500AE3C22B4255FC2D5C20412079EFF24D068
:10084500B40A00501A75F00A783A30D50508B6FF93
:100855000106C6A426F620D5047002D20380D92449
:10086500CFB41A00EF5004C2E5D204020ACED20179
:1008750080C6D20080C0D20280BCD2D580BAD20553
:1008850080B47F201207D02002077401B53A0040DA
:10089500F1120795FF1207D0020809D208D2068087
:1008A50095120795FB120795FA120795F94A4B70B1
:1008B5000679C57A0B7BFF20022EE53A602A7E0079
:1008C5008E8275830012057E60060EEE653B70F024
:1008D500C2D5EBC0E0EAC0E0E9C0E0EE120B2ED0D5
:1008E500E0F9D0E0FAD0E0FB120565FF60AAEBC0A5
:1008F500E0EAC0E0E9C0E01207D0D0E02401F9D079
:10090500E03400FAD0E0FBE53B0460DCD53BD98060
:1009150087D20280A2120B1160F7E53B7001041229
:1009250002CBA93B600DE53B600914F53B120BB802
:10093500EF60F3EA30E702F404C3995077EAF4254F
:100945003B0430E701E404F53B800D120B1160C157
:10095500EA053B253B1202CBEA7838F630E701E49D
:10096500253B04D53B0420050114120B2EE4C0E001
:10097500120BB87838E6601320E70714F61207B8AB
:10098500802204F6D0E014C0E07F001207B8E53BF2
:1009950060071207AF153B800B3005031207AFD078
:1009A500E0020809D0E00480C5120B1160A0E53B08
:1009B500041202CB7838EAF6E53B20050260010413
:0509C5002404120B2EBA
:1009CA0074FF04C0E0120BB81207B8E53B20050219
:1009DA0060031207AFD0E0B53BE87F451207C27843
:1009EA0038E67F2B30E7047F2DF404C0E01207D0ED
:1009FA00D0E075F00A84C0F01207B9D0E01207B946
:100A0A00020809791080027908C206C2088008D251
:100A1A00D5790A8004790AC2D5E53B047002F53B10
:100A2A00E4FAFDFEFF120795FC7B0820011312076A
:100A3A0095FD7B1030000A120795FE120795FF7B81
:100A4A0020EC3382D592D55013C3E43000069FFFC1
:100A5A00E49EFEE42001039DFDE49CFCE4CBF8C285
:100A6A0001EC700CCFCECDCCE824F8F870F38017E7
:100A7A00C3EF33FFEE33FEED33FDEC33FCEB33FB18
:100A8A00994002FB0FD8E9EB300105F8D0E0C448E1
:100A9A00B201C0E00AEC4D4E4F78207B0070C2EAEA
:100AAA00B53B0040BCC0E0120B30D0F0D0E02001D2
:100ABA0004C4C0E0C4B201C0F01207B9D0F0D5F046
:100ACA00EB02080912073D08A6530A0D5808774C8D
:100ADA000873420A114F0A19440A1949088C430A31
:100AEA001F5509504609AE45091A470BE550087BC0
:100AFA002D087F2E08A22B08832308A0200BCE2ABC
:100B0A00083B480000089AE53BB4FF03753B061210
:100B1A000795FC120795FD120795FE120795FF78B7
:100B2A00310202FA790AA2D5200314300509B91054
:100B3A00020404B9080104A2D520060250010420C7
:100B4A0002689202B53A005034C0E07F203003199F
:100B5A007F30A20272067205500F120B87C202C2C0
:100B6A0006C205C2087F30800F300503E9C0E012D3
:100B7A0007D0300503D0E0F9D0E0B53ACC300517FC
:100B8A007F30B9100C1207D07F583004077F788065
:100B9A0003B908031207D03002057F2D0207D07F60
:100BAA00202008F87F2B2006F322920280CF7F00B4
:100BBA00B4070050052431F8E6FF22286E756C6CE4
:100BCA002900D2011207953001F8C201783A30D5CE
:100BDA000108F602083B2D50434958120795240391
:100BEA00B405004001E4900BE0931207C1743A1275
:0A0BFA0007C1D203753A04020A0D88
:10028100E9D2E7C933E833F892D5EDD2E7CD33ECC3
:0702910033FC5002B2D5223C
:10029800EC30E7100FBF000C0EBE00080DBD0004C7
:1002A8000BEB6014A2D5EB13FCED92E7FD2274FF73
:1002B800FCFDFEFF22E480F8A2D574FF13FC7D80CC
:0302C800E480EFE0
:1002CB00F920E72824F950037907E4F42402FB18FA
:1002DB00DBFDE624FB5014E9600DE4F618E604F6AA
:0F02EB00B40A08E4F6D9F57401F60A22C2D52246
:1002FA00ED33EC3392D5FA602AB4FF33EDC2E77BD3
:10030A00FF60067A03791FE4227A03792820D5044C
:10031A007A037923224E614E002B494E46002D491D
:10032A004E4600E47A08F608DAFC7B00740722E8F5
:10033A00C0E0ECC0E0EDC0E0EEC0E0EFC0E0EA757E
:10034A00F010A4CAABF075F04DA42BFBE435F0FC19
:10035A00EA2410FAEB34C5FBEC34D9FCEDC2E7FF12
:10036A0075F056A4F42411C5F0F434C58FF0A42A0C
:10037A00E5F03BE43CF620E714120525D0E0FFD077
:10038A00E0FED0E0FDD0E0FC12016F8014F404120C
:10039A000525D0E0FFD0E0FED0E0FDD0E0FC120061
:1003AA0066D0E0F8E6FAEDD2E7CD33EC332482FBEF
:1003BA00E4C3CF33CFCE33CECD33CD33DBF37B079C
:1003CA0075F00A846004F6081B0AE5F0F6088FF057
:1003DA00740AA4FFACF08EF0740AA42CFEACF050A0
:1003EA00010C8DF0740AA42CFDE435F0F608DBDE6E
:0303FA0074072263
:1003FD000202B6E86480F8E933E83360110460F076
:10040D00ED33EC337009E8FCE9FDEAFEEBFF220465
:10041D0060DED3EB9FEA9EE99DE8C2E78CF0C2F760
:10042D0095F0400CE8CCF8E9CDF9EACEFAEBCFFB2C
:10043D0012028185D0F05804700320D5B3E8047002
:10044D00075002B2D50202C092D5EC0460F7E4CC9D
:10045D00C0E0C398F8603B94186008400DD0E0FBF5
:10046D00020298E4FBFAC9FC8028E830E406E4C9EE
:10047D00FBE4CAFCE830E305E4C9CACBFCE8540749
:10048D006010F8C3E913F9EA13FAEB13FBEC13FC54
:10049D00D8F130F52FC3E49CFCEF9BFFEE9AFEEDF7
:1004AD0099FDD0E0FBEF4E4D4C701222DB030202A2
:1004BD00BDEC2CFCEF33FFEE33FEED33FDED30E7FD
:1004CD00EB020298EF2BFFEE3AFEED39FDD0E0FB8B
:1004DD0050130BBB00030202C0ED13FDEE13FEEF34
:0804ED0013FFEC13FC0202985E
:1004F5003F8000004120000042C80000447A00000F
:10050500461C400047C35000497424004B18968090
:100515004CBEBC205A0E1BCA6753C21C749DC5AE87
:10052500FB60065407601C2323120553EB54386007
:100535000912053F12054E120066ECF8EDF9EEFAC8
:10054500EFCB22EB12054E80F1543803241C9004A6
:10055500F5FE93FC0EEE93FD0EEE930ECE93FF2269
:100D7800020E77E493A3F8E493A34003F68001F20C
:100D880008DFF48029E493A3F85407240CC8C3337C
:100D9800C4540F4420C8834004F456800146F6DF4B
:100DA800E4800B01020408102040809012E6E47EE3
:100DB800019360BCA3FF543F30E509541FFEE49340
:100DC800A360010ECF54C025E060A840B8E493A307
:100DD800FAE493A3F8E493A3C8C582C8CAC583CA32
:100DE800F0A3C8C582C8CAC583CADFE9DEE780BEEA
:0113130000D9
:10056500BB010689828A83E0225002E722BBFE0294
:09057500E32289828A83E49322C7
:10057E00BB010CE58229F582E5833AF583E0225032
:10058E0006E92582F8E622BBFE06E92582F8E2227C
:0D059E00E58229F582E5833AF583E4932296
:1005AB00BB010689828A83F0225002F722BBFE012F
:0205BB00F32229
:1005BD00F8BB010DE58229F582E5833AF583E8F074
:1005CD00225006E92582C8F622BBFE05E92582C820
:0205DD00F22208
:1005DF00BC000BBE0029EF8DF084FFADF022E4CC00
:1005EF00F875F008EF2FFFEE33FEEC33FCEE9DECC9
:1005FF00984005FCEE9DFE0FD5F0E9E4CEFD22ED0F
:10060F00F8F5F0EE8420D21CFEADF075F008EF2F58
:10061F00FFED33FD4007985006D5F0F222C398FD49
:05062F000FD5F0EA22E6
:1006340075F008758200EF2FFFEE33FECD33CDCC7D
:1006440033CCC58233C5829BED9AEC99E582984000
:100654000CF582EE9BFEED9AFDEC99FC0FD5F0D6DD
:10066400E4CEFBE4CDFAE4CCF9A88222B800C1B907
:100674000059BA002DEC8BF084CFCECDFCE5F0CB45
:10068400F97818EF2FFFEE33FEED33FDEC33FCEB7E
:1006940033FB10D703994004EB99FB0FD8E5E4F939
:1006A400FA227818EF2FFFEE33FEED33FDEC33FC26
:1006B400C933C910D7059BE99A4007EC9BFCE99A1A
:1006C400F90FD8E0E4C9FAE4CCFB2275F010EF2F5F
:1006D400FFEE33FEED33FDCC33CCC833C810D7075F
:1006E4009BEC9AE899400AED9BFDEC9AFCE899F89A
:0E06F4000FD5F0DAE4CDFBE4CCFAE4C8F9222D
:0E070200C3E49FFFE49EFEE49DFDE49CFC2208
:10071000EB9FF5F0EA9E42F0E99D42F0E89C45F03F
:0107200022B6
:0C072100ECF0A3EDF0A3EEF0A3EFF0224B
:10072D00FAE6FB0808E6F925F0F618E6CA3AF622CD
:10073D00D083D082F8E4937012740193700DA3A34B
:10074D0093F8740193F5828883E47374029368605F
:06075D00EFA3A3A380DF5F
:060763008A838982E47321
:10076900EF4E6012EF60010EEDBB010B89828A83A7
:10077900F0A3DFFCDEFA2289F05007F709DFFCA9B4
:0C078900F022BBFEFCF309DFFCA9F0220B
:00000001FF
