:0A16A400EF1FAC0670011E4C600E33
:0C16AE00756E0C756FA9D56FFDD56EFA36
:0316BA0080E822A3
:1011B000E4FFC2C4D2C2D2B520B3027F0420B2027F
:1011C0007F0520B1027F0620B0027F07D2C4C2C2D1
:1011D000D2B520B3027F0820B2027F0920B1027F7E
:1011E0000A20B0027F0BD2C4D2C2C2B520B3027FA4
:1011F0000C20B2027F0D20B1027F0E20B0027F0FC3
:0112000022CB
:06133D000170000171FFC8
:1012C900300E0FA8077401088002C333D8FC42709E
:1012D900800EA8077401088002C333D8FCF4527049
:1012E900E57065716013E570F4F580E5A0541F445D
:0912F90080F5A053A01F8570715F
:0113020022C8
:10171400C0F9A4B0999282F88090FFBF0102040836
:0417240010204080D1
:100026007580FFE5A0541F44E0F5A053A01FEF9094
:10003600172093F580E5A0541F44C0F5A053A01FD8
:10004600ED90171493300E06547FF5808002F580EC
:0C005600E5A0541F44E0F5A053A01F22B9
:1016D500538E7F5389F0438905E4F58AF58CC28DD5
:0516E500D28CD2AF22FF
:1016EA00538EBF53890F758B18758DFCC28FD28E9E
:0516FA00D2ABD2AF22CB
:10176200438E0475D72075D6D1438E1043AF04D271
:02177200AF22A4
:061343000172000173FFBE
:1015E4007580FFE5A0541F4480F5A053A01FE4F5C7
:0D15F40080E5A0541F44A0F5A053A01F22C5
:1015C100EF300F0442728003F45272E5726573606A
:1015D10011857280E5A0541F44A0F5A053A01F857A
:0215E100727323
:0115E30022E5
:04165600D2A07F0A95
:10165A00000000000000000000000000000000AED2
:06166A00071FEE70EB22E9
:0F178500D2A1121656C2A17F0A12165AC2A02272
:0C17B000C2A1121656D2A17F0A02165ADE
:0214AA00AD078C
:1014AC00E4FCC2A07F0A12165AED30E704D2A180E8
:1014BC0002C2A17F0A12165AD2A0ED25E0FD7F0AC6
:0914CC0012165A0CBC08DBC2A088
:0114D50022F4
:10160100E4FC121656ED25E0FD30A103430501C2AD
:0C161100A07F0A12165A0CBC08E8AF05B6
:01161D0022AA
:10159D00AB051217857FA01214AA1215AFAF031257
:0215AD0014AA7E
:1015AF00121656A2A1E433FDC2A07F0A12165AAF3B
:0115BF000526
:0115C0002208
:1016BD00C2A0EF24FF92A17F0A12165A121656C22B
:0816CD00A0D2A17F0A02165A07
:02152A00AB070D
:10152C00E4FD1217857F901215A41217857F911276
:10153C0014AA1215AF121601AD077F011216BD12B7
:04154C0017B0AF0520
:011550002278
:1016FF00AB071217857F901214AA1215AF7F4312F2
:05170F0015A40217B053
:101415008B1B8A1C891D12159DAF1F151FEF601FA1
:10142500AB1B051DE51DAA1C7002051C14F9120550
:10143500DEFF1214AA1215AF7FC812165A80DA02FF
:0214450017B0DE
:101246008B5B8A5C895D12159D1217857FA112142E
:10125600AA1215AFAF5F155FEF6024121601AB5BE4
:10126600055DE55DAA5C7002055C14F9EF120624C3
:10127600E55F6004E4FF80027F011216BD80D5029F
:0212860017B09F
:041670007F057E0074
:10167400EF1FAA0670011E4A600BE4FDEDC3940C33
:0516840050EE0D80F79F
:01168900223E
:02000300A9074B
:10000500E4FBC294E9139294121670D294E9C313D7
:0C001500F90BBB08ED7F057E000216749D
:10168A00E4FBC294ECC313FCD29430940343048069
:09169A001216700BBB08EBAF0443
:0116A3002224
:10155100C20DD2947F0C7E00121674C2947F507E0D
:1015610000121674D2947F0A7E00121674A294920D
:061571000D121670A20D20
:011577002251
:1013AD001215517FCC1200037F4412000312155108
:1013BD007FCC1200037FBE12000312168AA90712FA
:1013CD00168AEFAD01FCEC120382E4FBFA7980780A
:0413DD004102026760
:10173C00E4FEC297EF1392A3EFC313FFD2970EBE32
:02174C0008F0A3
:01174E002278
:10172800C29300C29700D2930012173CAF0512175C
:041738003CC29322FA
:1013E100E4FDC29300C29700D2930012173CE4FFC0
:1013F100C297EDC313FD30A303430580D2970FBFFE
:1014010008EEC29300C29700D29700C2A300D2A3F4
:0314110000AF0524
:0114140022B5
:10174F00EF75F00A84C454F0FEEF75F00A84EE25AD
:02175F00F0FF99
:011761002265
:0E179400EFC4540F75F00AA4FEEF540F2EFFA1
:0117A2002224
:0614D6008B688A69896A37
:1014DC00E4FCEC25E0FFC374859FFF1213E11217A7
:1014EC0094AB68AA69A96A8C82758300EF120636E0
:0414FC000CBC03DE43
:0115000022C8
:061303008B148A15891607
:10130900E4FD7F8E121728E4FCAB14AA15A9168CEC
:10131900827583001205F7FF12174FAD07EC25E020
:10132900FFC374849FFF1217280CBC03DC7D807FE8
:041339008E021728E1
:0617C40000007F21DFFEA2
:0117CA0022FC
:10177400E4FED2901217C4C2901217C40EBE08F22F
:011784002242
:10137500E4F5E9F5F9F5D9121774D2DE30910330A9
:10138500DFFAC2DE20DF1CAFF9EFFEADE9EDFFAC01
:1013950006E41203827B967A43798B783C12015ED0
:0713A5000203BBC2DF7F0061
:0113AC00221E
:10163B00759850538EBF538EFE53890F758BE6757D
:0B164B008DFFC2ABD28ED2ACD2AF221A
:0817BC008F993099FDC29922BA
:101578008B6B8A6C896DAB6BAA6CA96D1205DE60EA
:1015880013056DE56D7002056C14F91205DEFF1286
:0515980017BC80E222F7
:0517CB00AE070217BC8F
:03000000020DB935
:0C0DB900787FE4F6D8FD758174020E000E
:0D17A30073797374696D653A25640D0A0051
:10134900440048000000008310173B3202220000CD
:10135900042400000000012B00C109022C0000C177
:081369000AC18B013000C10C28
:0E0EC4007E007519CD7518CC75174C75163E4D
:040ED2008E148F15D6
:100ED600E52345227006851422851523AB19AA1829
:100EE600A917A816E4FFFE7D807C3F120069C004A6
:100EF600C005C006C007AC14AD15E4120382D003CA
:100F0600D002D001D00012015EC004C005C006C0E8
:100F160007AC22AD23E4120382AB19AA18A917A8BD
:100F26001612015ED003D002D001D00012006D125D
:060F360003BB8E228F2395
:010F3C002292
:080FB4008F0B8E0A8D098C08D9
:100FBC00AF27AE26AD25AC24EC4D4E4F700C850BF7
:100FCC0027850A26850925850824AB0FAA0EA90DAD
:100FDC00A80CE4FFFE7D807C3F120069AB0BAA0AD3
:100FEC00A909A80812015EC004C005C006C007AF5D
:100FFC000FAE0EAD0DAC0CAB27AA26A925A824125A
:10100C00015ED003D002D001D00012006D8F138E80
:0D101C00128D118C108F278E268D258C24AF
:0110290022A4
:101201001211B08F28E528652BFF5528F529E5280F
:0D121100F45FF52A85282BE5296404702779
:10121E00A209B39209FE7F08A20933FD7BFE7A0074
:10122E0079131207E27E007F08A209E433FD7BFEEC
:07123E007A0079001207E2BB
:011245002286
:10147900900048E0FCA3A3E0FEA3E05407FF8F1A05
:1014890074082FF8E2FD74002FF8E224FF920E127F
:1014990000267413251AF8E224FF920EAF1A0212DD
:0114A900C979
:100E4500AE2CAF2D7C277D101206587C007D0A1232
:100E550006587808EDF2AE2CAF2D7C037DE812061E
:100E6500587C007D0A1206587809EDF2AE2CAF2D9C
:100E75007C007D641206587C007D0A120658780AAB
:100E8500EDF2AE2CAF2D7C007D0A1206587C007D5C
:100E95000A120658780BEDF2AE2CAF2D7C007D0AB8
:100EA500120658780CEDF2C28CC2ABAF8CEFAD8A4E
:0E0EB500F52CEDF52DE4F58AF58CD2ABD28C40
:010EC300220C
:10161E00A20A920F7F401215C1A20B920F7F1012D9
:0C162E0015C1A20AB3920AA20BB3920BE2
:01163A00228D
:101288007BFE7A0079101214D6780D740BF2780A66
:10129800F2E4FF74102FF8E275F00A84FEEF75F09F
:1012A80003A42408F8EEF274102FF8E275F00A840B
:1012B800AEF0EF75F003A42409F8EEF20FBF03D3E4
:0112C8002203
:100F3D001213AD8F378E368D358C34750F9A750E25
:100F4D0099750D99750C3E120FB48F638E628D617C
:100F5D008C6078017401F2E4FFFE7D207C41AB636F
:100F6D00AA62A961A86012015E1203BBEF75F0645D
:100F7D008475F00A847808E5F0F2EF75F00A84754F
:100F8D00F00A8408E5F0F2E4FFFE7D207C41AB63BE
:100F9D00AA62A961A86012015E1203BBEF75F00A87
:060FAD0084780AE5F0F271
:010FB300221B
:101447001213758F2E120EC48F2FE52F75F064843B
:1014570075F00A847808E5F0F2E52F75F00A8475CF
:10146700F00A8408E5F0F2E52F75F00A8408E5F044
:01147700F282
:011478002251
:101157000530E530B40427E4F5307BE87A03F9F885
:10116700900048E0FCA3E0FDA3E0FEA3E0FF120629
:10117700E98E428F437BFF7A1779A3120870D3E574
:0E1187003E942CE53D9401401FE538B4311A2A
:10119500E4F531F538FE7F08A20C33FD7BFE7A00BD
:0A11A50079131207E2A20CB3920CBA
:0111AF00221D
:100C7D007F4112152A8F327F4312152A8F33AF32DF
:100C8D00120EC48E648F65AF33120EC48E668F67DD
:100C9D00E53275F03384FF1216FFAE64AF657C004C
:100CAD007D641206587C007D0A1206587808EDF214
:100CBD00AE64AF657C007D0A1206587C007D0A1279
:100CCD0006587809EDF2AE64AF657C007D0A120618
:100CDD0058780AEDF2AE66AF677C007D6412065857
:100CED007C007D0A120658780DEDF2AE66AF677C7A
:100CFD00007D0A1206587C007D0A120658780EED0A
:100D0D00F2AE66AF677C007D0A120658780FEDF2E1
:010D1D0022B3
:10102A001215E41213ADE4FBFA79A0784212030414
:10103A0040F17E007F087D007BFE7A00790012076E
:10104A00E27E007F087D0A7BFE7A0079081207E2B9
:10105A007E007F087D007BFE7A0079131207E27B0F
:10106A00FE7A0079101213031217627BFF7A127943
:10107A00017D0A7C001210F67BFF7A1479477DC83D
:0A108A007C001210F6120D1E80FB10
:03006300021094F4
:10109400C0E0C0F0C083C082C0D075D000C000C022
:1010A40001C002C003C004C005C006C007900048C8
:1010B400E0FCA3E0FDA3E0FEA3E02401FFE43EFE88
:1010C400E43DFDE43CFC90004812079A053EE53EF1
:1010D4007002053D121479D007D006D005D004D093
:1010E40003D002D001D000D0D0D082D083D0F0D0B1
:0210F400E032E8
:03002300021501C2
:10150100C0E0C0D075D000C000C007309812C298AA
:10151100753D00753E00AF31053174382FF8A6993D
:09152100D007D000D0D0D0E03298
:0313710001740004
:1010F6008B148A1589168C178D18E574D3940550B0
:101106004F900048E0FCA3E0FDA3E0FEA3E0FFE56E
:101116007475F009A4241BF582E43400F5831207E4
:101126009AE57475F009A4241FF582E43400F5836A
:10113600E517F0A3E518F0E57475F009A42421F588
:1011460082E43400F583EBF0A3EAF0A3E9F005743A
:011156002276
:100D1E00E4F514E514C395744003020DB8E514759B
:100D2E00F009A4241BF582E43400F583E0F8A3E077
:100D3E00F9A3E0FAA3E0FB900048E0FCA3E0FDA3DA
:100D4E00E0FEA3E0C39BFBEE9AFAED99F9EC98F85E
:100D5E00E51475F009A4241FF582E43400F583E050
:100D6E00FEA3E0FFE4FCFDC3120789403890004863
:100D7E00E0FCA3E0FDA3E0FEA3E0FFE51475F0099F
:100D8E00A4241BF582E43400F58312079AE514754A
:100D9E00F009A42421F582E43400F583A3E0FAA33C
:0A0DAE00E0F91207DC0514020D2124
:010DB8002218
:10006600020427E86480F8E933E83360110460F09D
:10007600ED33EC337009E8FCE9FDEAFEEBFF220400
:1000860060DED3EB9FEA9EE99DE8C2E78CF0C2F7FB
:1000960095F0400CE8CCF8E9CDF9EACEFAEBCFFBC7
:1000A6001203F285D0F05804700320D5B3E804702B
:1000B600075002B2D502043192D5EC0460F7E4CCC5
:1000C600C0E0C398F8603B94186008400DD0E0FB90
:1000D600020409E4FBFAC9FC8028E830E406E4C916
:1000E600FBE4CAFCE830E305E4C9CACBFCE85407E4
:1000F6006010F8C3E913F9EA13FAEB13FBEC13FCEF
:10010600D8F130F52FC3E49CFCEF9BFFEE9AFEED91
:1001160099FDD0E0FBEF4E4D4C701222DB0302043A
:100126002EEC2CFCEF33FFEE33FEED33FDED30E726
:10013600EB020409EF2BFFEE3AFEED39FDD0E0FBB2
:1001460050130BBB0003020431ED13FDEE13FEEF5B
:0801560013FFEC13FC02040985
:10015E00EC4D6011E8497017ED33EC3304600DE49B
:10016E00FCFFFEFD22E933E8330470F80204271287
:10017E0003F258046009E4CC248150062850090289
:10018E00043128400302042EC0E0EB4A7044B980CB
:10019E0006D0E0FB02041DEF4E701CBD8008EBFF85
:1001AE00EAFEE9FD80EBE98DF0A4FEE5F0020247E0
:1001BE00E9CDF9EAFEEBFFEF89F0A4FCE5F0CE897C
:1001CE00F0A42EFFE435F0CD89F0A42DFEE435F039
:1001DE008067EF4E7005BD80D780C3EF8BF0A4AC67
:1001EE00F0EE8BF0A42CFCE435F0F8EF8AF0A42CA2
:1001FE00E5F038FCE433CB8DF0A42CFCE5F03BF8B5
:10020E00EE8AF0A42CFCE5F038F8E433CF89F0A4A4
:10021E002CFCE5F038CF3400CE89F0A42FFFE5F0AA
:10022E003EFEE433C98DF0A42EFEE5F039CD8AF002
:10023E00A42FFFE5F03EFEE43DFD33D0E0FB50077A
:10024E000BBB000F020431EC2CFCEF33FFEE33FE40
:06025E00ED33FD0204096E
:10026400020431EC5D046005E859047003020427BC
:100274001203F2580460F6EC4860F2EC7004FDFEE0
:10028400FF22C860DB2481C85009C398600250066D
:1002940002042E9850CAF582E9294B4A7005AB82B4
:1002A40002041D75F0007C1A7880C3EF9BEE9AED72
:1002B40099400DC3EF9BFFEE9AFEED99FDE842F0E5
:1002C400DC23ACF0D0E0FFD0E0FED0E0FDAB822038
:1002D400E7101BEB60BAEC2CFCEF33FFEE33FEEDC2
:1002E40033FD020409E803F830E705C0F075F000B7
:1002F400EF2FFFEE33FEED33FD40B830E7C280AAA6
:1003040074F8CC6480CCC86480C8F58204604FC3A0
:10031400EB9FF5F0EA9E42F0E99D42F0E89C45F03F
:10032400603C501DE5825FFFE582D313CB5BCBF4C9
:100334002B5582FB50280ABA002409B900200880F2
:100344001DE5825BFBE582D313CF5FCFF4C3132F8C
:100354005582FF50090EBE00050DBD00010CC3EB14
:100364009FF5F0EA9E42F0E99D42F0E89C45F0607A
:0903740007CC4820E701B3EC229C
:10037D0075F020800E75F010800575F0087D007EFB
:10038D00007F003392D530D50312077BEC3340103C
:10039D00EF33FFEE33FEED33FDEC33FCD5F0ED2204
:0E03AD00E5F0247EA2D513CC92E7CDCEFF2240
:1003BB00EDD2E7CD33EC3392D524814006E4FFFE3A
:1003CB00FDFC22FCE4CFCECDCC24E0501174FF8099
:1003DB00EDC3CC13CCCD13CDCE13CECF13CF047036
:0703EB00F030D5DE02077BB4
:10080E00E5562442F8E6055622783F300702784234
:10081E00E475F0011207A60205DE2000EB7F2ED252
:10082E00008018EF540F2490D43440D4FF30040BC2
:10083E00EF24BFB41A0050032461FFE55760021580
:10084E0057055AE55A7002055930070D783FE47581
:10085E00F0011207A6EF0206240217CB7403D2078B
:10086E008003E4C207F5568B3F8A408941E4F55771
:10087E00F559F55AE55760077F2012084980F5753E
:10088E0058FFC201C200C202C203C205C206C2089C
:10089E00120817FF700D3007057F0012085AAF5A65
:1008AE00AE5922B4255FC2D5C204120817FF24D058
:1008BE00B40A00501A75F00A785730D50508B6FFFD
:1008CE000106C6A426F620D5047002D20380D924D0
:1008DE00CFB41A00EF5004C2E5D204020B47D20186
:1008EE0080C6D20080C0D20280BCD2D580BAD205DA
:1008FE0080B47F201208492002077401B5570040CA
:10090E00F112080EFF120849020882D208D20680A0
:10091E009512080EFB12080EFA12080EF94A4B70C9
:10092E0006793E7A0C7BFF20022EE557602A7E0068
:10093E008E827583001205F760060EEE655870F014
:10094E00C2D5EBC0E0EAC0E0E9C0E0EE120BA7D0E2
:10095E00E0F9D0E0FAD0E0FB1205DEFF60AAEBC0B2
:10096E00E0EAC0E0E9C0E0120849D0E02401F9D085
:10097E00E03400FAD0E0FBE5580460DCD558D980AD
:10098E0087D20280A2120B8A60F7E558700104121A
:10099E00043CA958600DE558600914F558120C3145
:1009AE00EF60F3EA30E702F404C3995077EAF425D6
:1009BE00580430E701E404F558800D120B8A60C12B
:1009CE00EA0558255812043CEA7855F630E701E45A
:1009DE00255804D5580420050114120BA7E4C0E0D5
:1009EE00120C317855E6601320E70714F612083121
:1009FE00802204F6D0E014C0E07F00120831E558E2
:100A0E0060071208281558800B300503120828D0ED
:100A1E00E0020882D0E00480C5120B8A60A0E5587F
:100A2E000412043C7855EAF6E558200502600104EC
:050A3E002404120BA7C7
:100A430074FF04C0E0120C31120831E5582005028E
:100A53006003120828D0E0B558E87F4512083B78B8
:100A630055E67F2B30E7047F2DF404C0E0120849DC
:100A7300D0E075F00A84C0F0120832D0E0120832D8
:100A8300020882791080027908C206C2088008D25F
:100A9300D5790A8004790AC2D5E558047002F5585D
:100AA300E4FAFDFEFF12080EFC7B08200113120876
:100AB3000EFD7B1030000A12080EFE12080EFF7B9B
:100AC30020EC3382D592D55013C3E43000069FFF48
:100AD300E49EFEE42001039DFDE49CFCE4CBF8C20C
:100AE30001EC700CCFCECDCCE824F8F870F380176E
:100AF300C3EF33FFEE33FEED33FDEC33FCEB33FB9F
:100B0300994002FB0FD8E9EB300105F8D0E0C44867
:100B1300B201C0E00AEC4D4E4F78207B0070C2EA70
:100B2300B5580040BCC0E0120BA9D0F0D0E02001C2
:100B330004C4C0E0C4B201C0F0120832D0F0D5F052
:100B4300EB0208821207B6091F530A865808F04CB5
:100B530008EC420A8A4F0A92440A92490905430A59
:100B6300985509C9460A27450993470C5E5008F46E
:100B73002D08F82E091B2B08FC230919200C472AE2
:100B830008B44800000913E558B4FF03755806126A
:100B9300080EFC12080EFD12080EFE12080EFF7856
:100BA3004E02046B790AA2D5200314300509B9104B
:100BB300020404B9080104A2D5200602500104204E
:100BC30002689202B557005034C0E07F2030031909
:100BD3007F30A20272067205500F120C00C202C2CD
:100BE30006C205C2087F30800F300503E9C0E0125A
:100BF3000849300503D0E0F9D0E0B557CC300517EC
:100C03007F30B9100C1208497F583004077F788071
:100C130003B908031208493002057F2D0208497FF2
:100C2300202008F87F2B2006F322920280CF7F003A
:100C3300B407005005244EF8E6FF22286E756C6C4D
:100C43002900D20112080E3001F8C201785730D5BD
:100C53000108F60208B42D5043495812080E240324
:100C6300B405004001E4900C599312083A743A1207
:0A0C7300083AD203755704020A86FE
:1003F200E9D2E7C933E833F892D5EDD2E7CD33EC51
:0704020033FC5002B2D522C9
:10040900EC30E7100FBF000C0EBE00080DBD000454
:100419000BEB6014A2D5EB13FCED92E7FD2274FF00
:10042900FCFDFEFF22E480F8A2D574FF13FC7D8059
:03043900E480EF6D
:10043C00F920E72824F950037907E4F42402FB1887
:10044C00DBFDE624FB5014E9600DE4F618E604F637
:0F045C00B40A08E4F6D9F57401F60A22C2D522D3
:10046B00ED33EC3392D5FA602AB4FF33EDC2E77B60
:10047B00FF60067A047990E4227A04799920D504F6
:10048B007A047994224E614E002B494E46002D4939
:10049B004E4600E47A08F608DAFC7B00740722E883
:1004AB00C0E0ECC0E0EDC0E0EEC0E0EFC0E0EA750C
:1004BB00F010A4CAABF075F04DA42BFBE435F0FCA7
:1004CB00EA2410FAEB34C5FBEC34D9FCEDC2E7FFA0
:1004DB0075F056A4F42411C5F0F434C58FF0A42A9A
:1004EB00E5F03BE43CF620E71412059ED0E0FFD08C
:1004FB00E0FED0E0FDD0E0FC1202678014F40412A1
:10050B00059ED0E0FFD0E0FED0E0FDD0E0FC120174
:10051B005ED0E0F8E6FAEDD2E7CD33EC332482FB84
:10052B00E4C3CF33CFCE33CECD33CD33DBF37B0729
:10053B0075F00A846004F6081B0AE5F0F6088FF0E4
:10054B00740AA4FFACF08EF0740AA42CFEACF0502D
:10055B00010C8DF0740AA42CFDE435F0F608DBDEFB
:03056B00740722F0
:10056E003F8000004120000042C80000447A000095
:10057E00461C400047C35000497424004B18968017
:10058E004CBEBC205A0E1BCA6753C21C749DC5AE0E
:10059E00FB60065407601C23231205CCEB54386015
:1005AE00091205B81205C712015EECF8EDF9EEFA64
:1005BE00EFCB22EB1205C780F1543803241C9005B3
:1005CE006EFE93FC0EEE93FD0EEE930ECE93FF2277
:100DC50002102AE493A3F8E493A34003F68001F20A
:100DD50008DFF48029E493A3F85407240CC8C3332F
:100DE500C4540F4420C8834004F456800146F6DFFE
:100DF500E4800B010204081020408090133DE47E3E
:100E0500019360BCA3FF543F30E509541FFEE493F2
:100E1500A360010ECF54C025E060A840B8E493A3B9
:100E2500FAE493A3F8E493A3C8C582C8CAC583CAE4
:100E3500F0A3C8C582C8CAC583CADFE9DEE780BE9C
:011374000078
:1005DE00BB010689828A83E0225002E722BBFE021B
:0905EE00E32289828A83E493224E
:1005F700BB010CE58229F582E5833AF583E02250B9
:1006070006E92582F8E622BBFE06E92582F8E22202
:0D061700E58229F582E5833AF583E493221C
:10062400BB010689828A83F0225002F722BBFE01B5
:02063400F322AF
:10063600F8BB010DE58229F582E5833AF583E8F0FA
:10064600225006E92582C8F622BBFE05E92582C8A6
:02065600F2228E
:10065800BC000BBE0029EF8DF084FFADF022E4CC86
:10066800F875F008EF2FFFEE33FEEC33FCEE9DEC4F
:10067800984005FCEE9DFE0FD5F0E9E4CEFD22ED95
:10068800F8F5F0EE8420D21CFEADF075F008EF2FDF
:10069800FFED33FD4007985006D5F0F222C398FDD0
:0506A8000FD5F0EA226D
:1006AD0075F008758200EF2FFFEE33FECD33CDCC04
:1006BD0033CCC58233C5829BED9AEC99E582984087
:1006CD000CF582EE9BFEED9AFDEC99FC0FD5F0D664
:1006DD00E4CEFBE4CDFAE4CCF9A88222B800C1B98E
:1006ED000059BA002DEC8BF084CFCECDFCE5F0CBCC
:1006FD00F97818EF2FFFEE33FEED33FDEC33FCEB05
:10070D0033FB10D703994004EB99FB0FD8E5E4F9BF
:10071D00FA227818EF2FFFEE33FEED33FDEC33FCAC
:10072D00C933C910D7059BE99A4007EC9BFCE99AA0
:10073D00F90FD8E0E4C9FAE4CCFB2275F010EF2FE5
:10074D00FFEE33FEED33FDCC33CCC833C810D707E5
:10075D009BEC9AE899400AED9BFDEC9AFCE899F820
:0E076D000FD5F0DAE4CDFBE4CCFAE4C8F922B3
:0E077B00C3E49FFFE49EFEE49DFDE49CFC228F
:10078900EB9FF5F0EA9E42F0E99D42F0E89C45F0C6
:01079900223D
:0C079A00ECF0A3EDF0A3EEF0A3EFF022D2
:1007A600FAE6FB0808E6F925F0F618E6CA3AF62254
:1007B600D083D082F8E4937012740193700DA3A3D2
:1007C60093F8740193F5828883E4737402936860E6
:0607D600EFA3A3A380DFE6
:0607DC008A838982E473A8
:1007E200EF4E6012EF60010EEDBB010B89828A832E
:1007F200F0A3DFFCDEFA2289F05007F709DFFCA93B
:0C080200F022BBFEFCF309DFFCA9F02291
:00000001FF
