:0A168500EF1FAC0670011E4C600E52
:0C168F0075770C7578A9D578FDD577FA31
:03169B0080E822C2
:10114100E4FFC2C4D2C2D2B520B3027F0420B202EE
:101151007F0520B1027F0620B0027F07D2C4C2C240
:10116100D2B520B3027F0820B2027F0920B1027FED
:101171000A20B0027F0BD2C4D2C2C2B520B3027F13
:101181000C20B2027F0D20B1027F0E20B0027F0F32
:01119100223B
:06131E00017900017AFFD5
:1012AA00300E0FA8077401088002C333D8FC4279B4
:1012BA00800EA8077401088002C333D8FCF452795F
:1012CA00E579657A6013E579F4F580E5A0541F4461
:0912DA0080F5A053A01F85797A6C
:0112E30022E8
:1016F500C0F9A4B0999282F88090FFBF0102040856
:0417050010204080F0
:100026007580FFE5A0541F44E0F5A053A01FEF9094
:10003600170193F580E5A0541F44C0F5A053A01FF7
:10004600ED9016F593300E06547FF5808002F5800C
:0C005600E5A0541F44E0F5A053A01F22B9
:1016B600538E7F5389F0438905E4F58AF58CC28DF4
:0516C600D28CD2AF221E
:1016CB00538EBF53890F758B18758DFCC28FD28EBD
:0516DB00D2ABD2AF22EA
:10174300438E0475D72075D6D1438E1043AF04D290
:02175300AF22C3
:06132400017B00017CFFCB
:1015C5007580FFE5A0541F4480F5A053A01FE4F5E6
:0D15D50080E5A0541F44A0F5A053A01F22E4
:1015A200EF300F04427B8003F4527BE57B657C6065
:1015B20011857B80E5A0541F44A0F5A053A01F8590
:0215C2007B7C30
:0115C4002204
:04163700D2A07F0AB4
:10163B00000000000000000000000000000000AEF1
:06164B00071FEE70EB2208
:0F176600D2A1121637C2A17F0A12163BC2A022CF
:0C179100C2A1121637D2A17F0A02163B3B
:02148B00AD07AB
:10148D00E4FCC2A07F0A12163BED30E704D2A18026
:10149D0002C2A17F0A12163BD2A0ED25E0FD7F0A04
:0914AD0012163B0CBC08DBC2A0C6
:0114B6002213
:1015E200E4FC121637ED25E0FD30A103430501C2EC
:0C15F200A07F0A12163B0CBC08E8AF05F5
:0115FE0022CA
:10157E00AB051217667FA012148B121590AF0312D3
:02158E00148BBC
:10159000121637A2A1E433FDC2A07F0A12163BAF98
:0115A0000545
:0115A1002227
:10169E00C2A0EF24FF92A17F0A12163B121637C288
:0816AE00A0D2A17F0A02163B45
:02150B00AB072C
:10150D00E4FD1217667F901215851217667F9112F2
:10151D00148B1215901215E2AD077F0112169E1253
:04152D001791AF055E
:011531002297
:1016E000AB071217667F9012148B1215907F43126E
:0516F0001585021791B1
:1013F6008B1A8A1B891C12157EAF1E151EEF601FE5
:10140600AB1A051CE51CAA1B7002051B14F9120574
:10141600DEFF12148B1215907FC812163B80DA027B
:0214260017911C
:101227008B5B8A5C895D12157E1217667FA112148B
:101237008B121590AF5F155FEF60241215E2AB5B61
:10124700055DE55DAA5C7002055C14F9EF120624E2
:10125700E55F6004E4FF80027F0112169E80D502DD
:021267001791DD
:041651007F057E0093
:10165500EF1FAA0670011E4A600BE4FDEDC3940C52
:0516650050EE0D80F7BE
:01166A00225D
:02000300A9074B
:10000500E4FBC294E9139294121651D294E9C313F6
:0C001500F90BBB08ED7F057E00021655BC
:10166B00E4FBC294ECC313FCD29430940343048088
:09167B001216510BBB08EBAF0481
:011684002243
:10153200C20DD2947F0C7E00121655C2947F507E4B
:1015420000121655D2947F0A7E00121655A294926A
:061552000D121651A20D5E
:011558002270
:10138E001215327FCC1200037F4412000312153265
:10139E007FCC1200037FBE12000312166BA9071238
:1013AE00166BEFAD01FCEC120382E4FBFA79807848
:0413BE00410202677F
:10171D00E4FEC297EF1392A3EFC313FFD2970EBE51
:02172D0008F0C2
:01172F002297
:10170900C29300C29700D2930012171DAF0512179A
:041719001DC2932238
:1013C200E4FDC29300C29700D2930012171DE4FFFE
:1013D200C297EDC313FD30A303430580D2970FBF1D
:1013E20008EEC29300C29700D29700C2A300D2A314
:0313F20000AF0544
:0113F50022D5
:10173000EF75F00A84C454F0FEEF75F00A84EE25CC
:02174000F0FFB8
:011742002284
:0E177500EFC4540F75F00AA4FEEF540F2EFFC0
:011783002243
:0614B7008B718A7289733B
:1014BD00E4FCEC25E0FFC374859FFF1213C21217E5
:1014CD0075AB71AA72A9738C82758300EF12063603
:0414DD000CBC03DE62
:0114E10022E8
:0612E4008B6D8A6E896F1C
:1012EA00E4FD7F8E121709E4FCAB6DAA6EA96F8C20
:1012FA00827583001205F7FF121730AD07EC25E05F
:10130A00FFC374849FFF1217090CBC03DC7D807F26
:04131A008E0217091F
:0617A50000007F21DFFEC1
:0117AB00221B
:10175500E4FED2901217A5C2901217A50EBE08F28C
:011765002261
:10135600E4F5E9F5F9F5D9121755D2DE30910330E7
:10136600DFFAC2DE20DF1CAFF9EFFEADE9EDFFAC20
:1013760006E41203827B967A43798B783C12015EEF
:071386000203BBC2DF7F0080
:01138D00223D
:10161C00759850538EBF538EFE53890F758BE6759C
:0B162C008DFFC2ABD28ED2ACD2AF2239
:08179D008F993099FDC29922D9
:101559008B748A758976AB74AA75A9761205DE60D3
:10156900130576E5767002057514F91205DEFF128A
:05157900179D80E22235
:0517AC00AE0702179DCD
:03000000020DB43A
:0C0DB400787FE4F6D8FD75817C020DFB11
:0D17840073797374696D653A25640D0A0070
:10132A00440048000000008310173B3202220000EC
:10133A00042400000000012B00C109022C0000C196
:08134A000AC18B013000C10C47
:0E0EBF007E007519CD7518CC75174C75163E52
:040ECD008E148F15DB
:100ED100E52345227006851422851523AB19AA182E
:100EE100A917A816E4FFFE7D807C3F120069C004AB
:100EF100C005C006C007AC14AD15E4120382D003CF
:100F0100D002D001D00012015EC004C005C006C0ED
:100F110007AC22AD23E4120382AB19AA18A917A8C2
:100F21001612015ED003D002D001D00012006D1262
:060F310003BB8E228F239A
:010F37002297
:080FAF008F0B8E0A8D098C08DE
:100FB700AF27AE26AD25AC24EC4D4E4F700C850BFC
:100FC70027850A26850925850824AB0FAA0EA90DB2
:100FD700A80CE4FFFE7D807C3F120069AB0BAA0AD8
:100FE700A909A80812015EC004C005C006C007AF62
:100FF7000FAE0EAD0DAC0CAB27AA26A925A824125F
:10100700015ED003D002D001D00012006D8F138E85
:0D101700128D118C108F278E268D258C24B4
:0110240022A9
:1011E2001211418F28E528652BFF5528F529E5289E
:0D11F200F45FF52A85282BE5296404702799
:1011FF00A209B39209FE7F08A20933FD7BFE7A0094
:10120F0079131207E27E007F08A209E433FD7BFE0B
:07121F007A0079001207E2DA
:0112260022A5
:10145A00900048E0FCA3A3E0FEA3E05407FF8F70CE
:10146A0074082FF8E2FD74002FF8E224FF920E129E
:10147A00002674132570F8E224FF920EAF70021250
:01148A00AAB7
:100E4000AE2CAF2D7C277D101206587C007D0A1237
:100E500006587808EDF2AE2CAF2D7C037DE8120623
:100E6000587C007D0A1206587809EDF2AE2CAF2DA1
:100E70007C007D641206587C007D0A120658780AB0
:100E8000EDF2AE2CAF2D7C007D0A1206587C007D61
:100E90000A120658780BEDF2AE2CAF2D7C007D0ABD
:100EA000120658780CEDF2C28CC2ABAF8CEFAD8A53
:0E0EB000F52CEDF52DE4F58AF58CD2ABD28C45
:010EBE002211
:1015FF00A20A920F7F401215A2A20B920F7F101218
:0C160F0015A2A20AB3920AA20BB3920B20
:01161B0022AC
:101269007BFE7A0079101214B7780D740BF2780AA4
:10127900F2E4FF74102FF8E275F00A84FEEF75F0BE
:1012890003A42408F8EEF274102FF8E275F00A842A
:10129900AEF0EF75F003A42409F8EEF20FBF03D303
:0112A9002222
:100F380012138E8F378E368D358C34750F9A750E49
:100F480099750D99750C3E120FAF8F688E678D6677
:100F58008C6578017401F2E4FFFE7D207C41AB686A
:100F6800AA67A966A86512015E1203BBEF75F06453
:100F78008475F00A847808E5F0F2EF75F00A847554
:100F8800F00A8408E5F0F2E4FFFE7D207C41AB68BE
:100F9800AA67A966A86512015E1203BBEF75F00A7D
:060FA80084780AE5F0F276
:010FAE002220
:101428001213568F2E120EBF8F2FE52F75F064847E
:1014380075F00A847808E5F0F2E52F75F00A8475EE
:10144800F00A8408E5F0F2E52F75F00A8408E5F063
:01145800F2A1
:011459002270
:1010E8000530E530B40427E4F5307BE87A03F9F8F5
:1010F800900048E0FCA3E0FDA3E0FEA3E0FF120699
:10110800E98E428F437BFF7A177984120870D3E502
:0E1118003E942CE53D9401401FE538B4311A99
:10112600E4F531F538FE7F08A20C33FD7BFE7A002C
:0A11360079131207E2A20CB3920C29
:01114000228C
:100C7D007F4112150B8F327F4312150B8F33AF321D
:100C8D00120EBF8E698F6AAF33120EBF8E6B8F6CD3
:100C9D00AF321216E0AE69AF6A7C007D6412065861
:100CAD007C007D0A1206587808EDF2AE69AF6A7CB9
:100CBD00007D0A1206587C007D0A1206587809ED4F
:100CCD00F2AE69AF6A7C007D0A120658780AEDF221
:100CDD00AE6BAF6C7C007D641206587C007D0A12F1
:100CED000658780DEDF2AE6BAF6C7C007D0A1206E6
:100CFD00587C007D0A120658780EEDF2AE6BAF6C83
:0B0D0D007C007D0A120658780FEDF202
:010D180022B8
:101192001215C512138EE4FBFA79A07842120304E9
:1011A20040F17E007F087D007BFE7A007900120705
:1011B200E27E007F087D0A7BFE7A0079081207E250
:1011C2007E007F087D007BFE7A0079131207E27BA6
:1011D200FE7A0079101212E4121743120D1980FBE5
:0300630002102563
:10102500C0E0C0F0C083C082C0D075D000C000C091
:1010350001C002C003C004C005C006C00790004837
:10104500E0FCA3E0FDA3E0FEA3E02401FFE43EFEF7
:10105500E43DFDE43CFC90004812079A053EE53E60
:101065007002053D12145AD007D006D005D004D021
:1010750003D002D001D000D0D0D082D083D0F0D020
:02108500E03257
:030023000214E2E2
:1014E200C0E0C0D075D000C000C007309812C298CA
:1014F200753D00753E00AF31053174382FF8A6995D
:09150200D007D000D0D0D0E032B7
:03135200011F0078
:101087008B608A6189628C638D64E51FD3940550F8
:101097004F900048E0FCA3E0FDA3E0FEA3E0FFE5DE
:1010A7001F75F009A4241BF582E43400F5831207A9
:1010B7009AE51F75F009A4241FF582E43400F5832F
:1010C700E563F0A3E564F0E51F75F009A42421F5B5
:1010D70082E43400F583EBF0A3EAF0A3E9F0051FFF
:0110E70022E6
:100D1900E4F56DE56DC3951F4003020DB3E56D75EF
:100D2900F009A4241BF582E43400F583E0F8A3E07C
:100D3900F9A3E0FAA3E0FB900048E0FCA3E0FDA3DF
:100D4900E0FEA3E0C39BFBEE9AFAED99F9EC98F863
:100D5900E56D75F009A4241FF582E43400F583E0FC
:100D6900FEA3E0FFE4FCFDC3120789403890004868
:100D7900E0FCA3E0FDA3E0FEA3E0FFE56D75F0094B
:100D8900A4241BF582E43400F58312079AE56D75F6
:100D9900F009A42421F582E43400F583A3E0FAA341
:0A0DA900E0F91207DC056D020D1CD5
:010DB300221D
:10006600020427E86480F8E933E83360110460F09D
:10007600ED33EC337009E8FCE9FDEAFEEBFF220400
:1000860060DED3EB9FEA9EE99DE8C2E78CF0C2F7FB
:1000960095F0400CE8CCF8E9CDF9EACEFAEBCFFBC7
:1000A6001203F285D0F05804700320D5B3E804702B
:1000B600075002B2D502043192D5EC0460F7E4CCC5
:1000C600C0E0C398F8603B94186008400DD0E0FB90
:1000D600020409E4FBFAC9FC8028E830E406E4C916
:1000E600FBE4CAFCE830E305E4C9CACBFCE85407E4
:1000F6006010F8C3E913F9EA13FAEB13FBEC13FCEF
:10010600D8F130F52FC3E49CFCEF9BFFEE9AFEED91
:1001160099FDD0E0FBEF4E4D4C701222DB0302043A
:100126002EEC2CFCEF33FFEE33FEED33FDED30E726
:10013600EB020409EF2BFFEE3AFEED39FDD0E0FBB2
:1001460050130BBB0003020431ED13FDEE13FEEF5B
:0801560013FFEC13FC02040985
:10015E00EC4D6011E8497017ED33EC3304600DE49B
:10016E00FCFFFEFD22E933E8330470F80204271287
:10017E0003F258046009E4CC248150062850090289
:10018E00043128400302042EC0E0EB4A7044B980CB
:10019E0006D0E0FB02041DEF4E701CBD8008EBFF85
:1001AE00EAFEE9FD80EBE98DF0A4FEE5F0020247E0
:1001BE00E9CDF9EAFEEBFFEF89F0A4FCE5F0CE897C
:1001CE00F0A42EFFE435F0CD89F0A42DFEE435F039
:1001DE008067EF4E7005BD80D780C3EF8BF0A4AC67
:1001EE00F0EE8BF0A42CFCE435F0F8EF8AF0A42CA2
:1001FE00E5F038FCE433CB8DF0A42CFCE5F03BF8B5
:10020E00EE8AF0A42CFCE5F038F8E433CF89F0A4A4
:10021E002CFCE5F038CF3400CE89F0A42FFFE5F0AA
:10022E003EFEE433C98DF0A42EFEE5F039CD8AF002
:10023E00A42FFFE5F03EFEE43DFD33D0E0FB50077A
:10024E000BBB000F020431EC2CFCEF33FFEE33FE40
:06025E00ED33FD0204096E
:10026400020431EC5D046005E859047003020427BC
:100274001203F2580460F6EC4860F2EC7004FDFEE0
:10028400FF22C860DB2481C85009C398600250066D
:1002940002042E9850CAF582E9294B4A7005AB82B4
:1002A40002041D75F0007C1A7880C3EF9BEE9AED72
:1002B40099400DC3EF9BFFEE9AFEED99FDE842F0E5
:1002C400DC23ACF0D0E0FFD0E0FED0E0FDAB822038
:1002D400E7101BEB60BAEC2CFCEF33FFEE33FEEDC2
:1002E40033FD020409E803F830E705C0F075F000B7
:1002F400EF2FFFEE33FEED33FD40B830E7C280AAA6
:1003040074F8CC6480CCC86480C8F58204604FC3A0
:10031400EB9FF5F0EA9E42F0E99D42F0E89C45F03F
:10032400603C501DE5825FFFE582D313CB5BCBF4C9
:100334002B5582FB50280ABA002409B900200880F2
:100344001DE5825BFBE582D313CF5FCFF4C3132F8C
:100354005582FF50090EBE00050DBD00010CC3EB14
:100364009FF5F0EA9E42F0E99D42F0E89C45F0607A
:0903740007CC4820E701B3EC229C
:10037D0075F020800E75F010800575F0087D007EFB
:10038D00007F003392D530D50312077BEC3340103C
:10039D00EF33FFEE33FEED33FDEC33FCD5F0ED2204
:0E03AD00E5F0247EA2D513CC92E7CDCEFF2240
:1003BB00EDD2E7CD33EC3392D524814006E4FFFE3A
:1003CB00FDFC22FCE4CFCECDCC24E0501174FF8099
:1003DB00EDC3CC13CCCD13CDCE13CECF13CF047036
:0703EB00F030D5DE02077BB4
:10080E00E5562442F8E6055622783F300702784234
:10081E00E475F0011207A60205DE2000EB7F2ED252
:10082E00008018EF540F2490D43440D4FF30040BC2
:10083E00EF24BFB41A0050032461FFE55760021580
:10084E0057055AE55A7002055930070D783FE47581
:10085E00F0011207A6EF0206240217AC7403D207AA
:10086E008003E4C207F5568B3F8A408941E4F55771
:10087E00F559F55AE55760077F2012084980F5753E
:10088E0058FFC201C200C202C203C205C206C2089C
:10089E00120817FF700D3007057F0012085AAF5A65
:1008AE00AE5922B4255FC2D5C204120817FF24D058
:1008BE00B40A00501A75F00A785730D50508B6FFFD
:1008CE000106C6A426F620D5047002D20380D924D0
:1008DE00CFB41A00EF5004C2E5D204020B47D20186
:1008EE0080C6D20080C0D20280BCD2D580BAD205DA
:1008FE0080B47F201208492002077401B5570040CA
:10090E00F112080EFF120849020882D208D20680A0
:10091E009512080EFB12080EFA12080EF94A4B70C9
:10092E0006793E7A0C7BFF20022EE557602A7E0068
:10093E008E827583001205F760060EEE655870F014
:10094E00C2D5EBC0E0EAC0E0E9C0E0EE120BA7D0E2
:10095E00E0F9D0E0FAD0E0FB1205DEFF60AAEBC0B2
:10096E00E0EAC0E0E9C0E0120849D0E02401F9D085
:10097E00E03400FAD0E0FBE5580460DCD558D980AD
:10098E0087D20280A2120B8A60F7E558700104121A
:10099E00043CA958600DE558600914F558120C3145
:1009AE00EF60F3EA30E702F404C3995077EAF425D6
:1009BE00580430E701E404F558800D120B8A60C12B
:1009CE00EA0558255812043CEA7855F630E701E45A
:1009DE00255804D5580420050114120BA7E4C0E0D5
:1009EE00120C317855E6601320E70714F612083121
:1009FE00802204F6D0E014C0E07F00120831E558E2
:100A0E0060071208281558800B300503120828D0ED
:100A1E00E0020882D0E00480C5120B8A60A0E5587F
:100A2E000412043C7855EAF6E558200502600104EC
:050A3E002404120BA7C7
:100A430074FF04C0E0120C31120831E5582005028E
:100A53006003120828D0E0B558E87F4512083B78B8
:100A630055E67F2B30E7047F2DF404C0E0120849DC
:100A7300D0E075F00A84C0F0120832D0E0120832D8
:100A8300020882791080027908C206C2088008D25F
:100A9300D5790A8004790AC2D5E558047002F5585D
:100AA300E4FAFDFEFF12080EFC7B08200113120876
:100AB3000EFD7B1030000A12080EFE12080EFF7B9B
:100AC30020EC3382D592D55013C3E43000069FFF48
:100AD300E49EFEE42001039DFDE49CFCE4CBF8C20C
:100AE30001EC700CCFCECDCCE824F8F870F380176E
:100AF300C3EF33FFEE33FEED33FDEC33FCEB33FB9F
:100B0300994002FB0FD8E9EB300105F8D0E0C44867
:100B1300B201C0E00AEC4D4E4F78207B0070C2EA70
:100B2300B5580040BCC0E0120BA9D0F0D0E02001C2
:100B330004C4C0E0C4B201C0F0120832D0F0D5F052
:100B4300EB0208821207B6091F530A865808F04CB5
:100B530008EC420A8A4F0A92440A92490905430A59
:100B6300985509C9460A27450993470C5E5008F46E
:100B73002D08F82E091B2B08FC230919200C472AE2
:100B830008B44800000913E558B4FF03755806126A
:100B9300080EFC12080EFD12080EFE12080EFF7856
:100BA3004E02046B790AA2D5200314300509B9104B
:100BB300020404B9080104A2D5200602500104204E
:100BC30002689202B557005034C0E07F2030031909
:100BD3007F30A20272067205500F120C00C202C2CD
:100BE30006C205C2087F30800F300503E9C0E0125A
:100BF3000849300503D0E0F9D0E0B557CC300517EC
:100C03007F30B9100C1208497F583004077F788071
:100C130003B908031208493002057F2D0208497FF2
:100C2300202008F87F2B2006F322920280CF7F003A
:100C3300B407005005244EF8E6FF22286E756C6C4D
:100C43002900D20112080E3001F8C201785730D5BD
:100C53000108F60208B42D5043495812080E240324
:100C6300B405004001E4900C599312083A743A1207
:0A0C7300083AD203755704020A86FE
:1003F200E9D2E7C933E833F892D5EDD2E7CD33EC51
:0704020033FC5002B2D522C9
:10040900EC30E7100FBF000C0EBE00080DBD000454
:100419000BEB6014A2D5EB13FCED92E7FD2274FF00
:10042900FCFDFEFF22E480F8A2D574FF13FC7D8059
:03043900E480EF6D
:10043C00F920E72824F950037907E4F42402FB1887
:10044C00DBFDE624FB5014E9600DE4F618E604F637
:0F045C00B40A08E4F6D9F57401F60A22C2D522D3
:10046B00ED33EC3392D5FA602AB4FF33EDC2E77B60
:10047B00FF60067A047990E4227A04799920D504F6
:10048B007A047994224E614E002B494E46002D4939
:10049B004E4600E47A08F608DAFC7B00740722E883
:1004AB00C0E0ECC0E0EDC0E0EEC0E0EFC0E0EA750C
:1004BB00F010A4CAABF075F04DA42BFBE435F0FCA7
:1004CB00EA2410FAEB34C5FBEC34D9FCEDC2E7FFA0
:1004DB0075F056A4F42411C5F0F434C58FF0A42A9A
:1004EB00E5F03BE43CF620E71412059ED0E0FFD08C
:1004FB00E0FED0E0FDD0E0FC1202678014F40412A1
:10050B00059ED0E0FFD0E0FED0E0FDD0E0FC120174
:10051B005ED0E0F8E6FAEDD2E7CD33EC332482FB84
:10052B00E4C3CF33CFCE33CECD33CD33DBF37B0729
:10053B0075F00A846004F6081B0AE5F0F6088FF0E4
:10054B00740AA4FFACF08EF0740AA42CFEACF0502D
:10055B00010C8DF0740AA42CFDE435F0F608DBDEFB
:03056B00740722F0
:10056E003F8000004120000042C80000447A000095
:10057E00461C400047C35000497424004B18968017
:10058E004CBEBC205A0E1BCA6753C21C749DC5AE0E
:10059E00FB60065407601C23231205CCEB54386015
:1005AE00091205B81205C712015EECF8EDF9EEFA64
:1005BE00EFCB22EB1205C780F1543803241C9005B3
:1005CE006EFE93FC0EEE93FD0EEE930ECE93FF2277
:100DC000021192E493A3F8E493A34003F68001F2A6
:100DD00008DFF48029E493A3F85407240CC8C33334
:100DE000C4540F4420C8834004F456800146F6DF03
:100DF000E4800B010204081020408090131EE47E62
:100E0000019360BCA3FF543F30E509541FFEE493F7
:100E1000A360010ECF54C025E060A840B8E493A3BE
:100E2000FAE493A3F8E493A3C8C582C8CAC583CAE9
:100E3000F0A3C8C582C8CAC583CADFE9DEE780BEA1
:011355000097
:1005DE00BB010689828A83E0225002E722BBFE021B
:0905EE00E32289828A83E493224E
:1005F700BB010CE58229F582E5833AF583E02250B9
:1006070006E92582F8E622BBFE06E92582F8E22202
:0D061700E58229F582E5833AF583E493221C
:10062400BB010689828A83F0225002F722BBFE01B5
:02063400F322AF
:10063600F8BB010DE58229F582E5833AF583E8F0FA
:10064600225006E92582C8F622BBFE05E92582C8A6
:02065600F2228E
:10065800BC000BBE0029EF8DF084FFADF022E4CC86
:10066800F875F008EF2FFFEE33FEEC33FCEE9DEC4F
:10067800984005FCEE9DFE0FD5F0E9E4CEFD22ED95
:10068800F8F5F0EE8420D21CFEADF075F008EF2FDF
:10069800FFED33FD4007985006D5F0F222C398FDD0
:0506A8000FD5F0EA226D
:1006AD0075F008758200EF2FFFEE33FECD33CDCC04
:1006BD0033CCC58233C5829BED9AEC99E582984087
:1006CD000CF582EE9BFEED9AFDEC99FC0FD5F0D664
:1006DD00E4CEFBE4CDFAE4CCF9A88222B800C1B98E
:1006ED000059BA002DEC8BF084CFCECDFCE5F0CBCC
:1006FD00F97818EF2FFFEE33FEED33FDEC33FCEB05
:10070D0033FB10D703994004EB99FB0FD8E5E4F9BF
:10071D00FA227818EF2FFFEE33FEED33FDEC33FCAC
:10072D00C933C910D7059BE99A4007EC9BFCE99AA0
:10073D00F90FD8E0E4C9FAE4CCFB2275F010EF2FE5
:10074D00FFEE33FEED33FDCC33CCC833C810D707E5
:10075D009BEC9AE899400AED9BFDEC9AFCE899F820
:0E076D000FD5F0DAE4CDFBE4CCFAE4C8F922B3
:0E077B00C3E49FFFE49EFEE49DFDE49CFC228F
:10078900EB9FF5F0EA9E42F0E99D42F0E89C45F0C6
:01079900223D
:0C079A00ECF0A3EDF0A3EEF0A3EFF022D2
:1007A600FAE6FB0808E6F925F0F618E6CA3AF62254
:1007B600D083D082F8E4937012740193700DA3A3D2
:1007C60093F8740193F5828883E4737402936860E6
:0607D600EFA3A3A380DFE6
:0607DC008A838982E473A8
:1007E200EF4E6012EF60010EEDBB010B89828A832E
:1007F200F0A3DFFCDEFA2289F05007F709DFFCA93B
:0C080200F022BBFEFCF309DFFCA9F02291
:00000001FF
